:020000040800F2
:1000000090490020CD0000086D240008012400085C
:1000100000000000000000000000000000000000E0
:10002000000000000000000000000000CD240008D7
:1000300000000000000000006F2400088D2500086B
:10004000DF00000800000000DF000008DF000008FB
:10005000DF000008DF000008DF000008DF00000804
:1000600000000000DF000008DF000008DF000008DB
:10007000DF000008DF000008DF00000800000000CB
:100080007D260008B1260008DF0000086D26000864
:10009000DF000008DF000008DF000008DF000008C4
:1000A000DF000008DF000008DF000008712E0008F4
:1000B000812E0008912E00080348854600F06CF858
:1000C00000480047953300089049002004488047C5
:1000D00004480047FEE7FEE7FEE7FEE7FEE7FEE72F
:1000E000F9250008B900000830B50B46014600208C
:1000F0002022012409E00D46D5409D4205D31D462E
:100100009540491B2546954040191546521E002D25
:10011000F1DC30BD03460B439B0703D009E008C95F
:10012000121F08C0042AFAD203E00B780370401CA7
:10013000491C521EF9D27047D2B201E00270401C35
:10014000491EFBD270470022F6E710B513460A4657
:1001500004461946FFF7F0FF204610BD30B50546AE
:100160002A460B4610781C78521C5B1C002801D0D4
:10017000A042F7D0002C03D0002802D06D1CEFE77E
:10018000284630BDCAB2401E4178401C8A4202D087
:100190000029F9D100207047064C0125064E05E0E4
:1001A000E36807CC2B430C3C98471034B442F7D398
:1001B000FFF786FF7C3400089C34000800B587B048
:1001C00000BF1F4840690121490408431C49486198
:1001D00008464069012149040840019000BF00BF62
:1001E00000BF17484069490008431549486108465F
:1001F0004069012189040840019000BF00BFFF2031
:10020000813002900120039000200490032005908B
:1002100002A90920C00600F00DF927200290012054
:100220000390002004900320059002A9054800F0E7
:1002300001F900213F2001F083FF07B000BD00005D
:10024000001002400004004801213F2001F078FF27
:1002500007E008213F2001F073FF7D20C00000F07F
:1002600053F8F6E71FB5234823490860002048608B
:100270000021214881602149C16000210161816123
:1002800001F026F8002801D0FFF7DEFF03211A480D
:1002900000F0CEFE002201214906104600F0CEFB00
:1002A00000200090012001900C200290002003907B
:1002B00000226946104800F071FF002801D0FFF7C6
:1002C000C3FF00210C4801F049F8002801D0FFF7D6
:1002D000BBFF00BF0A4800680228FBD10021064886
:1002E00001F074F8044800F0CBFF0648006804B041
:1002F00010BD00000020004088000020FFFF00002B
:10030000140000201000002031B500F091F90546DE
:10031000009C601C002800D0641C00BF00F088F91D
:10032000401BA042FAD338BDF0B502460B46002070
:10033000002100246FE0012585401D402946002949
:1003400068D0156847000326BE40B5431560C50850
:10035000AE0015462035AD594607F70E0F26BE40B4
:10036000B543C608B60017462037BD51956847000B
:100370000326BE40B5439560556801268640B543C7
:100380005560D56847000326BE40B543D560244D6F
:100390008608B600AC5985072E0F0F25B5402C40B6
:1003A0000925ED06AA4201D100250FE01D4DAA4204
:1003B00001D101250AE01C4DAA4201D1022505E028
:1003C0001A4DAA4201D1032500E005258607360F04
:1003D000B540A5421ED185072E0F0F25B5402C46EE
:1003E0000F4D8608B600AD59A5430D4E8708BF00D6
:1003F000F5510F4D2D688D430D4E356035466D68B6
:100400008D4375603546AD688D43B5603546ED6802
:100410008D43F560401C1D46C540002D8BD1F0BDBD
:10042000080001400004004800080048000C004893
:100430000004014078B50346002200240020DEE0DD
:10044000012696400D6835402C46002C7ED04D6824
:10045000022D02D04D68122D15D1D508AE001D46D3
:100460002035A8595507EE0E0F25B5400646AE4378
:1004700030465607F60E0D69B5402843D508AD0045
:100480001E4620367051186856000325B5400646B2
:10049000AE4330460D79AD07AD0F5600B540284349
:1004A00018604D68012D08D04D68022D05D04D68AB
:1004B000112D02D04D68122D18D1986856000325D1
:1004C000B5400646AE4330465600CD68B540284399
:1004D00098605868012595400646AE433046102680
:1004E0004D6835402D09954028435860D86856001E
:1004F0000325B5400646AE43304656008D68B540EC
:100500002843D860012636074D683540B54275D17D
:1005100000BF3E4DAD69012635433C4EB5613546C1
:10052000AD69ED07ED0F009500BF00BF384D96088F
:10053000B600A85995072E0F0F25B5400646AE43C5
:1005400030460925ED06AB4203D100E056E0002518
:100550000FE0304DAB4201D101250AE02E4DAB42F8
:1005600001D1022505E02D4DAB4201D1032500E06C
:1005700005259607360FB5402843254D9608B60049
:10058000A851274D28680546A5432846012636046C
:100590004D683540B54202D1054625432846204DD9
:1005A000286068680546A5432846012676044D68FC
:1005B0003540B54202D1054625432846184D6860AE
:1005C000A8680546A5432846012636054D683540EE
:1005D000B54202D1054625432846114DA860E8687A
:1005E0000546A5432846012676054D683540B542A7
:1005F00002D1054625432846094DE860521C0D6886
:10060000D540002D00D01BE778BD0000001002404F
:10061000080001400004004800080048000C0048A1
:1006200000040140002A01D0816100E0816270472E
:1006300001480068704700000400002070B50446BF
:10064000002C01D1012070BD1448216808601448B5
:10065000216808602168606848602168A068886037
:10066000FFF7E6FF054606E0FFF7E2FF401B2728FD
:1006700001D90320E7E72068C0680028F4D120688A
:100680000169E068814203D02168E068086102E006
:100690000448216808600020D5E70000CCCC0000A9
:1006A00055550000AAAA0000014602480A681060D9
:1006B00000207047AAAA000002480068401C0149B7
:1006C000086070470400002010B50648006810213B
:1006D000084304490860032000F006F800F017F80A
:1006E000002010BD0020024070B5044600F02CF937
:1006F00006467D21C900FFF7F7FC054600F07AFCAD
:1007000000222146501E00F02FF8002070BD7047D7
:100710000146002915DBCB06DB0E01229A400A4B6D
:100720001A6000BF00BF00BFBFF34F8F00BF00BF04
:1007300000BF00BF00BF00BFBFF36F8F00BF00BF8F
:1007400000BF00BF7047000080E100E001460029C3
:1007500005DBCB06DB0E01229A40024B1A6000BF7C
:100760007047000000E100E070B504460D461646F3
:100770002946204602F098FD70BD000070B5044681
:100780000D4600265D480068C007C00FA8420ED283
:100790005A48006840084000284358490860084605
:1007A0000068C007C00FA84201D0012070BD02211F
:1007B00020680840022807D151484068F02188434A
:1007C000A16808434E4948602078C007C00F002840
:1007D0005FD06068012808D14948006801214904B8
:1007E0000840002815D10120E0E76068022808D100
:1007F00043480068012149060840002809D101202A
:10080000D4E73F48006802210840002801D10120B8
:10081000CCE73B484068800880006168084338495D
:100820004860FFF705FF0646606801280FD107E022
:10083000FFF7FEFE801B3349884201D90320B5E74C
:100840002F4840680C2108400428F1D121E060685D
:1008500002280FD107E0FFF7EBFE801B29498842F1
:1008600001D90320A2E7264840680C210840082847
:10087000F1D10EE007E0FFF7DBFE801B2149884243
:1008800001D9032092E71E4840680C210840002847
:10089000F1D11A480068C007C00FA8420ED9174806
:1008A0000068400840002843144908600846006872
:1008B000C007C00FA84201D0012077E704212068BB
:1008C0000840042808D10E484068072109028843DF
:1008D000E16808430A49486000F04EF80849496851
:1008E000F02211400909084A515CC84007490860D4
:1008F0000320FFF7F9FE002058E700000020024027
:1009000000100240881300005C3400080000002042
:10091000072202600A4A52689207920F4260084A10
:100920005268F0231A408260054A526807231B026E
:100930001A40C260034A1268D207D20F0A60704799
:10094000001002400020024001480068704700008B
:100950000000002000B5FFF7F7FF054949680722AE
:1009600012021140090A034A515CC84000BD000050
:10097000001002406C340008F0B589B025A0014693
:100980000EC9C06805AC0EC4089026A001460EC969
:10099000C06801AC0EC40490002400260027002586
:1009A00000200090234844680C20204000282AD0D2
:1009B000042802D0082825D102E01F48009025E035
:1009C0000F2080042040800C05A90D5C1948C06AE6
:1009D0000007000F01A90E5C0320C0032040012185
:1009E0000904884206D131461348FFF77DFB68436E
:1009F000074605E031461048FFF776FB6843074697
:100A0000009703E000BF0C48009000BF00BF0098B3
:100A100009B0F0BD02030405060708090A0B0C0D16
:100A20000E0F10100102030405060708090A0B0C3B
:100A30000D0E0F100010024000127A0070B586B043
:100A400006460C4615460220029003200490002022
:100A50000390FF20013001900020059000BF104856
:100A600040690121490408430D494861084640692D
:100A7000012149040840009000BF00BF01A90920DE
:100A8000C006FFF7D7FC064840687F210906884367
:100A90002146294308430249486006B070BD000062
:100AA00000100240F8B5044600252078C007C00FAA
:100AB000002872D0FA4840680C21084004280CD065
:100AC000F74840680840082813D1F54840684903B2
:100AD00008400121090488420BD1F1480068012136
:100AE0004904084000286BD06068002868D10120C4
:100AF000F8BD00BF6068012807D1E94800680121FE
:100B000009040843E649086031E0606800280ED116
:100B1000E3480068012109048843E1490860084668
:100B20000068012189048843DD4908601FE060688E
:100B300005280ED1DA480068012189040843D84904
:100B4000086008460068012109040843D449086088
:100B50000DE0D3480068012109048843D0490860AA
:100B600008460068012189048843CD49086000BF18
:100B70006068002812D0FFF75BFD054606E0FFF72E
:100B800057FD401B642801D90320B1E7C448006821
:100B90000121490408400028F1D011E0FFF748FD89
:100BA000054606E0FFF744FD401B642801D90320F9
:100BB0009EE7BB4800680121490408400028F1D1A4
:100BC000022120680840022862D1B54840680C2103
:100BD000084000280CD0B2484068084008281CD1C2
:100BE000AF484068490308400121C903884214D135
:100BF000AB48006802210840002804D0E0680128C2
:100C000001D0012074E7A6480068F82188432169D3
:100C1000C9000843A24908603AE0E068002820D0F3
:100C20009F480068012108439D490860FFF700FDC7
:100C3000054606E0FFF7FCFC401B022801D9032013
:100C400056E797480068022108400028F2D09448EF
:100C50000068F82188432169C90008439049086069
:100C600016E08F480068400840008D490860FFF793
:100C7000DFFC054606E0FFF7DBFC401B022801D93C
:100C8000032035E786480068022108400028F2D199
:100C9000082120680840082831D1E069002817D0D1
:100CA0007F48406A012108437D494862FFF7C0FC44
:100CB000054606E0FFF7BCFC401B022801D90320D3
:100CC00016E77748406A022108400028F2D016E073
:100CD0007348406A4008400071494862FFF7A8FC29
:100CE000054606E0FFF7A4FC401B022801D90320BB
:100CF000FEE66B48406A022108400028F2D1042138
:100D000020680840042871D100266548C06989061A
:100D1000084000280DD100BF6148C0690843604900
:100D2000C8610846C06909040840009000BF00BFC0
:100D300001265C480068FF2101310840002816D1D7
:100D400058480068084357490860FFF771FC05469A
:100D500006E0FFF76DFC401B642801D90320C7E6BD
:100D600050480068FF21013108400028F1D000BF41
:100D7000A068012806D14A48006A01210843484971
:100D800008622BE0A06800280CD14548006A4008A2
:100D90004000434908620846006A042188434049EC
:100DA00008621BE0A06805280CD13D48006A0421B8
:100DB00008433B4908620846006A01210843384954
:100DC00008620BE03648006A400840003449086277
:100DD0000846006A042188433149086200BFA068C0
:100DE000002813D0FFF724FC054608E029E0FFF7B0
:100DF0001FFC401B2C49884201D9032078E6284873
:100E0000006A022108400028F1D011E0FFF710FC31
:100E1000054607E0FFF70CFC401B2349884201D937
:100E2000032065E61E48006A022108400028F1D12F
:100E3000012E05D11A48C069310788431849C86195
:100E400000BF10212068084010285FD16069012888
:100E50002CD11348406B04210843114948630846CC
:100E6000406B012108430E494863FFF7E1FB05464B
:100E700006E0FFF7DDFB401B022801D9032037E61F
:100E80000748406B022108400028F2D00448406B1C
:100E9000F8218843A169C90008430149486335E046
:100EA0000010024000700040881300006069401D7F
:100EB00000280FD14E48406B042188434C494863B9
:100EC0000846406BF8218843A169C9000843484996
:100ED00048631BE04648406B04210843444948638B
:100EE0000846406B400840004863FFF7A1FB0546F9
:100EF00006E0FFF79DFB401B022801D90320F7E520
:100F00003B48406B022108400028F2D1206A0028AB
:100F10006CD0374840680C210840082864D0206A0B
:100F2000022847D132480068012109068843304928
:100F30000860FFF77DFB054606E0FFF779FB401BE5
:100F4000022801D90320D3E5294800680121490678
:100F500008400028F1D100BF2548C06A00090001FF
:100F6000E16A08432249C862616AA06A08432049CD
:100F700049687B22D203914308431D49486000BF62
:100F80000846006801210906084319490860FFF76F
:100F90004FFB054606E0FFF74BFB401B022801D93B
:100FA0000320A5E5124800680121490608400028F1
:100FB000F1D01BE00E4800680121090688430C4966
:100FC0000860FFF735FB054606E0FFF731FB401BE5
:100FD000022801D903208BE5054800680121490654
:100FE00008400028F1D101E0012081E500207FE5E3
:100FF0000010024070B504462546681E0949884223
:1010000001D901200CE0681E074948610321081F2F
:1010100002F04AF900200449886107200861002095
:1010200070BD0000FFFFFF0000E000E07047704768
:10103000024600BF3C20805C012801D1022070479D
:1010400001233C20835400BF106801653D20835478
:1010500000BF00233C20835400BF0020EFE710B501
:101060000446002C01D1012010BD3D20005D002868
:1010700005D100213C200155204600F00DF8022149
:101080003D200155211D206801F066FB01213D2016
:1010900001550020E8E7000038B504461A492068E9
:1010A000884216D100BF1948C06902210843174978
:1010B000C8610846C06902210840009000BF00BF17
:1010C000012200211020FFF74FFB1020FFF73EFB0D
:1010D00019E00F492068884215D100BF0B48C0694C
:1010E000102108430949C8610846C0691021084019
:1010F000009000BF00BF012200211120FFF734FB48
:101100001120FFF723FB38BD00040040001002400F
:101110000010004001460868C068012210430A68B8
:10112000D06008680068012210430A68106000203F
:101130007047000070B5064600250021124800F0F7
:1011400074FA81B211480468601C104A1060600093
:101150000F4A11520D480068022813D31046008828
:10116000691E081A114649884018401C85B2294654
:1011700008480068FEF7B8FF07490860084600689D
:10118000C000086070BD000088000020140000202E
:101190000C0000200000002010000020F8B50446DC
:1011A0000D46164600BF3C20005D012801D10220FB
:1011B000F8BD01213C20015500BF02213D20015511
:1011C000002E12D1EB686A682968206801F022FBC2
:1011D000206880690C2188432168886120688069C3
:1011E000A9680843216888613FE0042E14D1EB68A8
:1011F0006A682968206801F045FB2068806903213E
:10120000890288432168886120688069A968090289
:1012100008432168886128E0082E12D1EB686A68CB
:101220002968206801F054FB2068C0690C218843BC
:101230002168C8612068C069A96808432168C8613D
:1012400013E0EB686A682968206801F066FB206893
:10125000C0690321890288432168C8612068C06988
:10126000A968090208432168C86101213D20015590
:1012700000BF00213C20015500BF002098E700007E
:1012800010B5044602213D20015500BF2068006AC8
:101290000E49084000280BD12068006A89100840D8
:1012A000002805D1206800684008400021680860D7
:1012B00000BF204600F028F800213D20015500BF66
:1012C0003C20015500BF002010BD0000111100009E
:1012D00010B50446002C01D1012010BD3D20005D59
:1012E000002805D100213C200155204600F00EF8D1
:1012F00002213D200155211D206801F02DFA012118
:101300003D2001550020E8E77047000010B58EB081
:1013100004460820029000200A900120099002A8AB
:10132000FFF7C0FB00BF0C48C069FF210131084333
:101330000949C8610846C06989150840019000BF85
:1013400000BF002211461320FFF70EFA1320FFF70B
:10135000FDF90EB010BD00000010024030B504468B
:101360000D46002D06D0042D0BD0082D10D00C2DCD
:101370001CD114E02068C068022108432168C860BD
:1013800015E02068C068042108432168C8600EE0A9
:101390002068C068082108432168C86007E0206809
:1013A000C068102108432168C86000E000BF00BF8A
:1013B00001222946206801F01FFA206800680121F7
:1013C000084321680860002030BD000030B50446A5
:1013D0000D46002D06D0042D0BD0082D10D00C2D5D
:1013E0001CD114E02068C068022188432168C860CD
:1013F00015E02068C068042188432168C8600EE0B9
:101400002068C068082188432168C86007E0206818
:10141000C068102188432168C86000E000BF00BF99
:1014200000222946206801F0E7F900BF2068006A21
:101430000949084000280BD12068006A891008403B
:10144000002805D120680068400840002168086035
:1014500000BF002030BD00001111000010B504468F
:101460002068006902210840400800281CD020683C
:10147000C06808404008002816D0481F216808614D
:1014800001202077206880698007800F002803D022
:101490002046FFF74FFE05E0204600F0C3F8204647
:1014A00000F0C1F80020207720680069042108407E
:1014B000800800281DD02068C068084080080028E7
:1014C00017D0C8432168086102202077206880690E
:1014D000032109020840002803D02046FFF72AFE16
:1014E00005E0204600F09EF8204600F09CF8002021
:1014F00020772068006908210840C00800281CD017
:101500002068C0680840C008002816D0C843216879
:101510000861042020772068C0698007800F0028B8
:1015200003D02046FFF706FE05E0204600F07AF8DB
:10153000204600F078F8002020772068006910210C
:101540000840000900281DD02068C0680840000934
:10155000002817D0C8432168086108202077206838
:10156000C069032109020840002803D02046FFF784
:10157000E1FD05E0204600F055F8204600F053F864
:101580000020207720680069C007C00F0121484073
:10159000484000280CD02068C068084048404840B7
:1015A000002805D0C81E21680861204600F03CF8DC
:1015B0002068006980210840C00900280BD02068FD
:1015C000C0680840C009002805D0C84321680861E8
:1015D0002046FFF72BFD2068006940210840800964
:1015E00000280BD02068C06808408009002805D07A
:1015F000C84321680861204600F043F8206800696C
:1016000020210840400900280BD02068C06808400D
:101610004009002805D0C843216808612046FFF72B
:1016200006FD10BD70477047704710B50246002395
:1016300000BF3C20805C012801D1022010BD0124A4
:101640003C20845400BF002906D0042907D0082973
:1016500008D00C290CD108E01068436B09E0106831
:10166000836B06E01068C36B03E01068036C00E056
:1016700000BF00BF00BF00243C20845400BF1846B8
:10168000DCE77047FEB504460D462068C669206851
:101690000768206880680290002001903007000FE2
:1016A00001900198002843D12020304000283FD0ED
:1016B0002020384000283BD02068808C0090009883
:1016C000C1B2FF200B3068438E4A8218FF200B30D6
:1016D00068438C4BC018803040781154FF200B3089
:1016E00068431946401880304078401CC1B2FF2042
:1016F0000B3068431A46801880304170802906DB21
:101700000021FF200B306843801880304170052194
:10171000FF200B3068437B4A8018FF300130018185
:101720000121FF200B30684380188030C170FEBD5E
:10173000206880680290019800287DD00298C00738
:10174000C00F002804D1FF20213038400028F4D0F9
:10175000F007C00F00280BD0FF20013038400028D0
:1017600006D0012021680862E06E01210843E0668E
:101770000220304000280BD00298C007C00F00287C
:1017800006D0022021680862E06E04210843E0666A
:101790000420304000280BD00298C007C00F00285A
:1017A00006D0042021680862E06E02210843E0664A
:1017B0000820304000280FD020203840002804D1D5
:1017C0000298C007C00F002806D0082021680862D0
:1017D000E06E08210843E066E06E002867D0202014
:1017E0003040002840D02020384000283CD02068DD
:1017F000808C00900098C1B2FF200B306843414AB2
:101800008218FF200B3068433E4BC0188030407870
:101810001154FF200B30684319464018803040783F
:10182000401CC1B2FF200B3068431A46801880303C
:101830004170802908DB00E03AE00021FF200B30F6
:1018400068438018803041700521FF200B306843C9
:101850002C4A8018FF30013001810121FF200B301C
:10186000684380188030C170E06E0821084000286D
:1018700005D12068806840210840002815D02068E4
:101880000068FF2121318843216808602068806852
:10189000400840002168886020216A2001552A46BE
:1018A0002146206801F086FA01E00020E0663EE76C
:1018B00080203040002810D08020384000280CD0F4
:1018C00020680068802188432168086020680068DB
:1018D000402108432168086029E740203040002863
:1018E0000DD040203840002809D0206800684021F1
:1018F00088432168086020216920015517E700BF4F
:1019000015E700005805002010B50446002C01D151
:10191000012010BD2421692001552068006840087D
:101920004000216808600020216808602168486044
:1019300021688860204600F04FF80020E066002112
:10194000692001556A20015500BF6820015500BF7C
:101950000020DEE710B50446002C01D1012010BDA7
:10196000A069002800D000E000BF6920005D0028C9
:1019700005D1002168200155204600F009F92421F5
:10198000692001552068006840084000216808600F
:10199000204601F0C5F8012800D1E0E7606A002880
:1019A00002D0204601F035F8206840680121C902C4
:1019B000884321684860206880680821884321683E
:1019C000886020680068012108432168086020467B
:1019D00001F097F8C3E7000010B504466449206899
:1019E00088421CD163480069012109050843614907
:1019F0000861084600690121090588435D490861BD
:101A00000846C0690121090588435A49C86118215F
:101A10005948FEF789FC1D20FEF77AFEA6E05749DB
:101A2000206888421ED15348C068012189030843B9
:101A30005049C8600846C0680121890388434D4960
:101A4000C860084680690121890388434949886143
:101A5000032149020920C006FEF766FC1B20FEF7A1
:101A600057FE83E04649206888421DD141480069FD
:101A70000121490408433F490861084600690121E2
:101A8000490488433B4908610846C069012149046B
:101A900088433849C8610C210920C006FEF744FC80
:101AA0001C20FEF735FE61E03649206888421DD1D2
:101AB000304800690121890408432E49086108461D
:101AC00000690121890488432A4908610846C069E0
:101AD0000121890488432749C861032189022648D6
:101AE000FEF722FC1D20FEF713FE3FE0264920688A
:101AF00088421DD11F4800690121C90408431D49BE
:101B00000861084600690121C90488431949086130
:101B10000846C0690121C90488431649C8610321E8
:101B20000920C006FEF700FC1D20FEF7F1FD1DE0B8
:101B300016492068884219D10E48C0682021084300
:101B40000C49C8600846C068202188430949C8601C
:101B50000846806920218843064988613021092090
:101B6000C006FEF7E1FB1D20FEF7D2FD10BD000010
:101B700000500040001002400004004800380140BE
:101B80000044004000480040004C00400014014068
:101B900010B586B00446AF492068884235D100BFF1
:101BA000AD484069012189040843AB4948610846B2
:101BB0004069012189040840009000BF00BF00BFB8
:101BC000A548C06989000843A349C8610846C0699F
:101BD000012109050840009000BF00BF18200190B6
:101BE000022002900120039003200490042005901D
:101BF00001A99A48FEF71EFC012200211D20FEF7D4
:101C0000B3FD1D20FEF7A2FD22E195492068884220
:101C100037D100BF904840690121490408438E49EB
:101C2000486108464069012149040840009000BF0E
:101C300000BF00BF88488069C91008438649886191
:101C400008468069012189030840009000BF00BF59
:101C50000320400201900220029001200390032003
:101C600004900120059001A90920C006FEF7E2FBBF
:101C7000022200211D20FEF777FD1B20FEF766FDE6
:101C8000E6E078492068884235D100BF7248C069D3
:101C90000121490408437049C8610846C06901210F
:101CA00049040840009000BF00BF00BF6A48406977
:101CB00008436949486108464069012149040840D0
:101CC000009000BF00BF0C20019002200290012074
:101CD0000390032004900120059001A90920C0066B
:101CE000FEF7A8FB022200211C20FEF73DFD1C2070
:101CF000FEF72CFDACE05C492068884235D100BF7E
:101D00005548C0690121890408435349C861084600
:101D1000C069012189040840009000BF00BF00BFD6
:101D20004D48406908434C494861084640690121D3
:101D300089040840009000BF00BF0320800201908A
:101D400002200290012003900320049004200590BB
:101D500001A94248FEF76EFB022200211D20FEF77A
:101D600003FD1D20FEF7F2FC72E040492068884226
:101D700036D100BF3848C0690121C904084336493B
:101D8000C8610846C0690121C9040840009000BF2D
:101D900000BF00BF30484069891008432E494861A0
:101DA00008464069012149040840009000BF00BF77
:101DB0000320019002200290012003900320049050
:101DC0000420059001A90920C006FEF733FB02227A
:101DD00000211D20FEF7C8FC1D20FEF7B7FC37E0F0
:101DE00023492068884233D100BF1B4880692021E5
:101DF00008431949886108468069202108400090FD
:101E000000BF00BF00BF14484069090308431249DE
:101E1000486108464069012149040840009000BF1C
:101E200000BF302001900220029001200390032087
:101E300004900520059001A90920C006FEF7FAFAD2
:101E4000022200211D20FEF78FFC1D20FEF77EFCE4
:101E500006B010BD005000400010024000040048D1
:101E6000003801400044004000480040004C004061
:101E700000140140FEB504460D4616461F460020DC
:101E800001906920005D20286AD1002D01D0002E2C
:101E900001D10120FEBD01210903A068884208D1BB
:101EA0002069002805D1E807C00F002801D00120D3
:101EB000F0E700BF6820005D012801D10220E9E7BA
:101EC00001216820015500BF0020E0662121692022
:101ED0000155FEF7ADFB01905020065352200653EA
:101EE00025E05220005B401E81B252200153009732
:101EF000002280212046019B00F024FF002801D011
:101F00000320C7E701210903A06888420BD120699B
:101F1000002808D10295029D2888C005C00D2168BF
:101F20000885AD1C03E028786D1C216808855220C7
:101F3000005B0028D5DC0097002240212046019B51
:101F400000F000FF002801D00320A3E72021692032
:101F5000015500BF00216820015500BF002099E70E
:101F6000022097E7FFB581B005461646002D46D002
:101F7000002E44D00498002841D0642E3ADA01277C
:101F8000AD06AD0E274C2AE028463840002823D065
:101F90002078022808DA384623490978084023497E
:101FA0000978084321490870002020700498A08017
:101FB000A670029860700298002803D1207804214E
:101FC00008432070FEF734FBA0602078022108430C
:101FD00020702846784005467806070E0C34002D00
:101FE000D2D113480123002211460090114800F07D
:101FF00009FD08E00121284600F0A2F803E00021D5
:10200000284600F09DF8084800782840002801D1B3
:10201000012000E0002006463146284600F00CF87A
:1020200005B0F0BD2C000020080000200A000020B0
:10203000D52100088014002070B504460D46E00745
:10204000C00F00280ED0012D06D1012280210920C9
:10205000C006FEF7E7FA05E0002280210920C0064D
:10206000FEF7E0FA0220204000280CD0012D05D117
:10207000012211463048FEF7D5FA04E00022012182
:102080002D48FEF7CFFA0420204000280CD0012D67
:1020900005D1012202212848FEF7C4FA04E00022FB
:1020A00002212548FEF7BEFA0820204000280CD067
:1020B000012D05D1012204211F48FEF7B3FA04E0E7
:1020C000002204211C48FEF7ADFA10202040002811
:1020D0000FD0012D06D1012211020920C006FEF702
:1020E000A1FA06E00022FF2101310920C006FEF717
:1020F00099FA2020204000280CD0012D05D1012282
:1021000020210D48FEF78EFA04E0002220210A4823
:10211000FEF788FA002D05D00848007820430749CB
:10212000087007E02046FF2148400449097808402C
:102130000249087070BD000000040048080000203B
:10214000F8B505460E46330001F09FF8091716064C
:10215000360E3636361836007D23DB001E2201216E
:102160002846FFF7FFFE28E07D23DB001E223221F8
:102170002846FFF7F7FE20E000BF00BF0127AD06AD
:10218000AD0E124C15E02846384000280ED0082E1F
:1021900001D0267003E0207801214840207021788A
:1021A0003846FFF749FF2846784005467806070E6F
:1021B0000C34002DE7D100E000BF00BF31462846B7
:1021C000FFF73AFF02480078F8BD00002C0000201D
:1021D00008000020F0B585B0002701253F200290BF
:1021E0004B4C20464030007A00287DD180E0029898
:1021F0002840002877D020780221084000286FD09E
:10220000FEF716FA0646A168B1425CD82078C007EE
:10221000C00F002818D0A0786421081AC0B203901B
:10222000207840084000207000212846FFF704FF76
:1022300020780421084000281CD16078FF2819D09C
:102240006078401E607015E06078002809D1207821
:1022500004210840002804D1207802214840207041
:1022600008E0A078039020780121084320702846D8
:10227000FFF7E2FE20780221084000280CD0A18858
:10228000039A514308466421FDF72EFF80B2019066
:1022900001983018A0601AE0002001901D480078D5
:1022A0002840002801D0012000E0002001462846F7
:1022B000FFF746FF2846FF214840164909780840A5
:1022C0001449087003E02089801B80B20190002F20
:1022D00005D00198002803D00198B84200DA019F88
:1022E00002986840029000E010E06806050E0C3489
:1022F0000298002800D07AE7002F07D00648002374
:10230000012239460090054800F07CFB05B0F0BD85
:102310002C0000200A000020D52100088014002095
:10232000F0B50346002030E0FF240B345443204D29
:10233000641980342478FF250B3555431C4EAD19A4
:1023400080352D786D1CEEB2FF250B355543184FA7
:10235000ED1980352E70FF250B3555433E46AD19DE
:102360002C5D1C705B1CFF240B34544335466419F0
:1023700080342478802C06DB0025FF240B34544362
:10238000A41980342570441CA0B2FF240B3454439C
:10239000074D641980342578FF240B345443044ED0
:1023A000A41980346478A54201D08842BCDBF0BD1A
:1023B000580500200146FF200B3048430F4BC01842
:1023C00080304278FF200B304843C01880300078BE
:1023D000904207DCFF200B304843C0188030007863
:1023E000101A09E0FF200B304843044BC01880301E
:1023F00000788023181A801880B270475805002092
:1024000000BFFEE710B50F48406A0E48406A012140
:10241000090608430B494862FDF724FF0A49086092
:102420000A480B490860032048604621084881603B
:102430000849C160FEF702F9002801D0FDF704FF4A
:1024400010BD0000001002401000002000300040CD
:1024500078000020FF0F000000B50249024800F09C
:102460007FF800BD71240008681400207047704791
:1024700070B51348046800201249487101200871A2
:102480000A200860002C19D0207B002804D100F01D
:1024900047F80B48046802E0207B401E2073A288A6
:1024A0000023DB430848A168FFF7E4FC00F038F89C
:1024B00014231A4601212020FFF754FD70BD0000AF
:1024C0001800002068140020E80300207047000076
:1024D00070B505460E460024102000F089FF044622
:1024E000002C04D1284600F02BFF012070BD0B48C2
:1024F0000068002802D10948046002E007484068EB
:102500000460A560A68000202060012020730020C8
:102510006073024844600020E8E7000018000020D3
:1025200010B50E480068046800200C4909688880CE
:102530000A4909680873094909684873074909681D
:10254000086006490968886800F0FAFE03490868CF
:1025500000F0F6FE01480460002010BD18000020C5
:10256000002202600271012242718160704730B521
:1025700002460B4600240020002103E0555C2C1984
:102580004D1CE9B29942F9DBE0B230BD10B5FEF75F
:1025900093F810BD00B591B000200D900E900F90F3
:1025A0001090302101A8FDF7CEFD022001900120FE
:1025B0000490102005900220099081030A910121C6
:1025C0000C910521C9040B9101A8FEF76BFA0028B4
:1025D00001D0FDF739FE07200D9002200E9000205B
:1025E0000F90109001210DA8FEF7C8F8002801D027
:1025F000FDF72AFE11B000BD19480068012108430B
:102600001749086008464068164908401449486060
:1026100008460068144908401149086008460068E7
:102620000121890488430E490860084640683F211B
:10263000090488430A4948600846C06A0009000145
:10264000C8620846006BFF211431884304490863BF
:102650000846406B4008400048630020886070478F
:10266000001002400CB8FF08FFFFF6FE10B502484C
:10267000FEF7F4FE10BD0000880000200B48006843
:102680000069C007C00F01214840484000280BD016
:1026900006480068C068084048404840002803D009
:1026A000C81E02490968086170470000080100203F
:1026B00010B50D4800680069C007C00F01214840EF
:1026C000484000280FD008480068C06808404840CB
:1026D0004840002807D0C81E03490968086100F077
:1026E00045F900F05FFD10BDC800002070B586B050
:1026F0000025002601A902A8FEF70AF9059D002D74
:1027000003D1FEF727F9044602E0FEF723F944005F
:102710000D492046FDF7E8FC461E0C480C490860B0
:102720000C490B48C16046600021016181608161F4
:10273000FEF795FC002804D10548FEF7EBFC06B037
:1027400070BD0120FBE7000040420F000010004078
:10275000C8000020E703000010B500220268204BEB
:10276000984202D01F4B984205D170241346A343D0
:102770001A464B681A431A4B98420ED0194B98428E
:102780000BD0194B984208D0184B984205D0184BE3
:10279000984202D0174B984206D1032424021346D4
:1027A000A3431A46CB681A4380241346A3434C69BB
:1027B00023431A4602608B68C3620B688362084B2E
:1027C000984208D0094B984205D0094B984202D054
:1027D000084B984201D10B6903630123436110BD8B
:1027E000002C014000040040002000400040014057
:1027F000004401400048014030B5002301248C40D2
:102800002346046A9C430462046A15468D402C43A7
:10281000046230BDF0B50C4600210025066A76083A
:10282000760006628169056A134EB04205D0134EE8
:10283000B04202D0124EB04201D1012600E0002683
:10284000002E05D0890889000E461643314601E066
:1028500001263143F0260F46B74339461E01F027C3
:102860003E4031430A262F46B7433D462640354376
:1028700081610562F0BD0000002C014000040040B1
:1028800000400140F0B50C4600210025066A1027E3
:10289000BE4306628169056A032636020F46B743C6
:1028A0003946160231430F2636030F46B7433946E1
:1028B0001E030F273F033E403143A0262F46B74358
:1028C0003D462601A0273E40354381610562F0BDAB
:1028D000F0B50C4600210025066AFF270137BE43EC
:1028E0000662C169056A890889000E4616433146A9
:1028F000F0260F46B74339461E01F0273E403143CC
:10290000052676022F46B7433D46260205277F025D
:102910003E403543C1610562F0BDF0B50C46002173
:102920000025066A01273F03BE430662C169056AA6
:10293000032636020F46B7433946160231430F26A7
:1029400036030F46B74339461E030F273F033E4069
:102950003143052676032F46B7433D462603052718
:102960007F033E403543C1610562F0BD002000BFDA
:1029700024E00C214143134A8918097900291BD00E
:102980000C2141435158002908D00C214143515892
:10299000491E0C2242430B4B99500DE000220C21A2
:1029A0004143084BC9180A710C2141435A50012276
:1029B0000C214143C9184A71411CC8B20328D8DB15
:1029C000704700006814002010B5002414E00C20AB
:1029D00060430B494018407900280BD00C2060431D
:1029E00040188068002805D00C216143044A8918EA
:1029F00088688047601CC4B2032CE8DB10BD00006F
:102A00006814002010B5029C01600271437184605B
:102A100010BD818CC907C90F002908D00168496819
:102A2000012252049143826A1143026851600222DA
:102A3000416A1140002907D001684968D2039143D7
:102A4000C26A1143026851600422416A11400029A0
:102A500007D00168496812049143026B1143026870
:102A600051600822416A1140002907D00168496875
:102A700012039143426B1143026851601022416A74
:102A80001140002907D00168896812029143826BC6
:102A90001143026891602022416A1140002907D049
:102AA0000168896812029143C26B11430268916008
:102AB0004022416A1140002915D0016849689203FB
:102AC0009143026C11430268516001221205016CAE
:102AD000914208D101684968032252059143426C32
:102AE0001143026851608022416A1140002907D0D9
:102AF0000168496812039143826C11430268516076
:102B0000704701460020C8662022692042546A208E
:102B1000425400BF00226820425400BF002070478A
:102B2000FEB50446002510260027002002900190E3
:102B30002169A068084361690843E16908430546C3
:102B400020680068744908402843216808602068AC
:102B50004068032109038843E1680843216848600D
:102B6000216AA06908430546206880680B21090294
:102B7000884328432168886000BF684920688842EC
:102B800017D16748006B8007800F002806D0012806
:102B900008D0022808D0032808D101E0002607E069
:102BA000022605E0042603E0082601E0102600BF07
:102BB0001EE05C492068884201D1002618E05A498D
:102BC0002068884201D1002612E0584920688842D6
:102BD00001D100260CE056492068884201D1002628
:102BE00006E054492068884201D1002600E0102602
:102BF00000BF0121C903E069884249D1042E20D0D9
:102C000004DC002E07D0022E32D111E0082E25D090
:102C1000102E2DD12DE0FDF79DFE40006168490882
:102C2000401800906168FDF75FFA80B2029023E0DF
:102C300061684A08404BD018FDF756FA80B20290FE
:102C40001AE0FDF799FE40006168490840180090BD
:102C50006168FDF749FA80B202900DE061684A08A8
:102C600001231B04D018FDF73FFA80B2029003E065
:102C700000BF0120019000BF00BF3049029808400A
:102C8000074602980007400F07432068C76040E0EE
:102C9000042E21D004DC002E07D0022E34D111E006
:102CA000082E26D0102E2FD12FE0FDF753FE61689D
:102CB0004908401800906168FDF716FA80B2216853
:102CC000C86025E061684A081D4BD018FDF70CFA72
:102CD00080B22168C8601BE0FDF74EFE61684908BC
:102CE000401800906168FDF7FFF980B22168C86064
:102CF0000EE061684A080123DB03D018FDF7F4F900
:102D000080B22168C86003E000BF0120019000BFCD
:102D100000BF0198FEBD0000F369FFEF00380140DD
:102D2000001002400044004000480040004C0040B9
:102D300000500040001401400024F400F0FF0000A7
:102D400000127A00FFB581B004460D4617460A9E70
:102D500024E0701C002821D0002E05D0FDF768FC6F
:102D60000499401AB04219D920680068FF21A131A6
:102D70008843216808602068806840084000216816
:102D800088602021692001556A20015500BF00217B
:102D90006820015500BF032005B0F0BD2068C06960
:102DA0002840A84201D1012000E00020B842D0D044
:102DB0000020F1E770B505460C46164625604B200D
:102DC000000260600021A160E1602161A1610C212D
:102DD0006161002060622046FEF796FD2046FEF706
:102DE000B9FD002805D001213F20FFF7A9F900BF58
:102DF000FEE700BF01210903A06888420AD12069CB
:102E0000002803D119495C20015320E0FF215C20F8
:102E100001531CE0A06800280AD12069002803D1D2
:102E2000FF215C20015312E07F215C2001530EE062
:102E300001210907A068884209D12069002803D12F
:102E40007F215C20015302E03F215C20015300BF41
:102E50002068806801210843216888602068006834
:102E6000FF21213108432168086070BDFF01000087
:102E700010B504210148FEF705FC10BD78030020C1
:102E800010B501210148FEF7FDFB10BD280200200E
:102E900010B500210848FEF7F5FB02210648E03096
:102EA000FEF7F0FB03210548FEF7ECFB0521034884
:102EB000E030FEF7E7FB10BDB8010020080300205A
:102EC000F8B500270024002600253A48807801281C
:102ED0006ED10021374881700520FFF76BFA364923
:102EE000087008460078002862D00522084601785C
:102EF0003248FFF715FA40213048FDF743F9044600
:102F0000254623212046FDF73DF90646002D4BD0EE
:102F1000002E49D02AA12846FDF720F9002843D0E9
:102F20002C212846FDF72EF9054630206870301B0D
:102F3000401CC7B20023DB433A4621462148FEF736
:102F400099FF0023DB433A4621461E487030FEF7C6
:102F500091FF0023DB433A4621461A48E030FEF752
:102F600089FF0023DB433A4621461748FEF782FFDC
:102F70000023DB433A46214613487030FEF77AFFC0
:102F800080210E48FDF7DFF814231A460121202086
:102F9000FEF7E8FF0D490E4A1278885C5A231E227C
:102FA0000121FEF7DFFFF8BD80210448FDF7CBF8D3
:102FB00000BFF8E70A0B0020210000205804002081
:102FC00047494400B8010020080300207434000879
:102FD00022000020FEB500240027002600200290D9
:102FE0000025019000905049087096E04E48007806
:102FF000FF210B3148434D4940188030807801282B
:103000007DD1002148480078FF220B325043474AC7
:1030100080188030817044480078FFF7CBF944492C
:10302000087008460078002872D0424C25463E4879
:103030000278084601782046FFF772F923E02078ED
:103040005A281AD10B212046FFF791FAE17A8842DB
:103050000CD10C2221463448007800F0E7F83448BF
:1030600000780C38324908700C340CE0641C30488D
:103070000078401E2E49087005E0641C2C4800783A
:10308000401E2B4908702A4800780C28D7DA02988D
:10309000002837D140212846FDF774F80546232142
:1030A0002846FDF76FF80190002D2BD001980028DD
:1030B00028D02C212846FDF765F800901A480078A2
:1030C0003030C1B2009841700198401B401CC6B21C
:1030D000304600F08DF90746002F13D032462946BE
:1030E0003846FDF717F831463846FFF7F1F912492F
:1030F0000D4A1278885C5A231E22012100E007E065
:10310000FEF730FF0020029080210A48FDF71BF8EF
:1031100005480078401C04490870034800780528D9
:1031200000DA63E7FEBD0000200000205805002003
:10313000210000208C1400207434000810B50022F7
:1031400010491148FFF736FE01220E4970310F4831
:10315000FFF730FE02220B49E0310D48FFF72AFE4F
:1031600003220C490C48FFF725FE0422094970315F
:103170000A48FFF71FFE05220649E0310848FFF71D
:1031800019FE10BDB8010020004C00400044004072
:1031900000140140080300200048004000380140AE
:1031A00000500040002000BF3BE0FF210B314143B5
:1031B0001D4A89188031C978012930D1FF210B318E
:1031C00041438918FF3101310989002911DDFF21AF
:1031D0000B3141438918FF3101310989491E8AB2F7
:1031E000FF210B314143104BC918FF3101310A81D6
:1031F00015E00022FF210B3141430B4BC9188031F0
:10320000CA70FF210B314143C918FF3101310A81D6
:103210000122FF210B314143C91880318A70411CC2
:10322000C8B20628C1DB704758050020F8B506462D
:103230000C4615460027284600F0DAF80746002F0E
:103240001CD060788019607060192038C07F8019A8
:10325000C1B260192038C1772A4621463846FCF7AA
:1032600059FF29463846FFF733F90549054A1278D0
:10327000885C5A231E220121FEF774FEF8BD00006F
:103280007434000820000020704730B47446641E77
:103290002578641CAB4204D3635D5B00E31830BC4B
:1032A00018471D46F8E7000010B5002819DB1A4A38
:1032B00003231B02D21883089B00D2588307DC0E1D
:1032C000FF23A3409A438B071B0E8407E40EA34001
:1032D0001A43114B032424021B198408A4001A5119
:1032E00018E00E4A03071B0F083B9B089B00D258AF
:1032F0008307DC0EFF23A3409A438B071B0E840732
:10330000E40EA3401A43054B0407240F083CA4080D
:10331000A4001A5110BD000000E100E01CED00E027
:1033200002E008C8121F08C1002AFAD1704770478E
:10333000002001E001C1121F002AFBD170470000EC
:1033400010B5002823D0124B0022001F196803E09B
:10335000814203D80A4649680029F9D1002A0AD0D7
:103360001368841A9C4204D1006818181060104633
:1033700002E0506000E01860002907D002680B1AD4
:10338000934203D10B68D21802604968416010BDB6
:1033900024000020FDF798F9FFF7FCF8FCF70EFF7A
:1033A000FFF7CCFEFFF770FF01212020FEF7C8FEDB
:1033B000FFF79CF9FFF750F8FFF724F8FCF7FEFE43
:1033C0007D23DB001E22FF212020FEF7CBFD0CE039
:1033D000FFF7FAFAFFF7FEFDFFF772FD0348FDF76E
:1033E00063F9002801D0FCF72FFFF1E778000020F7
:1033F000F0B50B30C108C900144F0026144A0FE085
:1034000003688B420BD38B4205D95C1A431845687D
:1034100030C3083B00E04368136002C004E0021DB3
:1034200010680028ECD13046002803D13868002805
:1034300001D00020F0BD064A06481060064A121A64
:10344000D208D20044C001203860D7E7280000200D
:10345000240000209415002090450020000000006A
:103460000000000001020304060708090000000034
:103470000102030401020408100000009C3400084B
:10348000000000202C00000020330008C834000891
:103490002C000020644900003033000800127A003C
:1034A000000000000000000000000000000000001C
:1034B000000000000000000000000000000000000C
:0834C000000000000000000004
:04000005080000B936
:00000001FF
