:020000040800F2
:10000000401F0020CD000008E9250008D125000888
:1000100000000000000000000000000000000000E0
:100020000000000000000000000000004926000859
:100030000000000000000000EB2500080927000870
:10004000DF00000800000000DF000008DF000008FB
:10005000DF000008DF000008DF000008DF00000804
:10006000000000009D030008A1030008DF00000855
:10007000DF000008DF000008DF00000800000000CB
:10008000E127000815280008DF000008D127000834
:10009000DF000008DF000008DF000008DF000008C4
:1000A000DF000008DF000008DF000008892F0008DB
:1000B000992F0008A92F00080348854600F006F98B
:1000C0000048004719350008401F002004488047B9
:1000D00004480047FEE7FEE7FEE7FEE7FEE7FEE72F
:1000E0005D270008B900000830B50B460146002026
:1000F0002022012409E00D46D5409D4205D31D462E
:100100009540491B2546954040191546521E002D25
:10011000F1DC30BD03460B439B0703D009E008C95F
:10012000121F08C0042AFAD203E00B780370401CA7
:10013000491C521EF9D27047D2B201E00270401C35
:10014000491EFBD270470022F6E710B513460A4657
:1001500004461946FFF7F0FF204610BD30B50546AE
:100160002A460B4610781C78521C5B1C002801D0D4
:10017000A042F7D0002C03D0002802D06D1CEFE77E
:10018000284630BDCAB2401E4178401C8A4202D087
:100190000029F9D100207047421C0178401C002939
:1001A000FBD1801A7047F7B582B00F460026029C3B
:1001B00003F074F90090006801902578641C002D0C
:1001C00005D000F02BF80068405DC007F5D12B2D5D
:1001D00002D02D2D1CD0641E0098002101603946EC
:1001E0002046049A00F01EF80146002F04D038681B
:1001F000A04201D1029838600098006802280BD014
:100200000098019A0260700506D5484205B0F0BD1D
:10021000012080020643DFE70846F7E70048704701
:1002200060360008F7B582B0029C00272078641C75
:1002300015460197302802D0002D15D015E0207802
:100240000127641C782804D0582802D0002D09D03A
:100250000BE0002D01D0102D07D1002710252078AC
:10026000641C02E0082500E00A250026009610E044
:100270000099012769430818020C294680B271438E
:1002800000908E183804864201D301200190207816
:10029000641C294600F02CF80028E9DA03980028AD
:1002A00005D0002F01D0641E00E0029C046001987C
:1002B000002806D003F0F2F802210160C81E05B044
:1002C000F0BD009930040843F9E70000064C012511
:1002D000064E05E0E36807CC2B430C3C98471034EE
:1002E000B442F7D3FFF7ECFE64360008843600080A
:1002F0003A2800D23038202302469A43412A01D3BB
:1003000010463738884201D30020C04370470000B0
:1003100000B587B000BF1F48406901214904084368
:100320001C49486108464069012149040840019080
:1003300000BF00BF00BF1748406949000843154986
:10034000486108464069012189040840019000BFC6
:1003500000BFFF2081300290012003900020049014
:100360000320059002A90920C00600F009FA272001
:10037000029001200390002004900320059002A920
:10038000054800F0FDF900213F2001F0C1FF07B052
:1003900000BD00000010024000040048704700004B
:1003A00010B50249086E00F06CF810BD5001002035
:1003B00010B50446054A2168881A1421FFF794FEF7
:1003C0008000206401480838E06310BD0800024046
:1003D00030B50124056CAC40C56B6C60046863608B
:1003E0004468102C04D10468A2600468E16003E052
:1003F0000468A1600468E26030BD014608680068D6
:100400000E2290430A6810600868006840084000A7
:100410000A68106001200A6C9040CA6B506001228B
:100420002120425400BF00222020425400BF00205F
:10043000704710B50446002C01D1012010BD206882
:1004400000684008400021680860002021680860BA
:1004500021684860216888602168C8602046FFF7ED
:10046000A7FF0120216C8840E16B48600020A06359
:1004700000212120015500BF2020015500BF002090
:10048000DCE770B50446E06B056820680668042068
:10049000216C8840284000281BD0042030400028D0
:1004A00017D02068006820210840002805D1206866
:1004B000006804218843216808600420216C88407A
:1004C000E16B4860E06A002852D02046E16A884724
:1004D0004EE00220216C88402840002823D00220D2
:1004E000304000281FD020680068202108400028E4
:1004F00008D1206800680A2188432168086001212A
:10050000212001550220216C8840E16B486000BF2A
:1005100000212020015500BFA06A002828D02046D5
:10052000A16A884724E00820216C884028400028E0
:100530001ED00820304000281AD0206800680E2104
:100540008843216808600120216C8840E16B486085
:100550000120A06301212120015500BF002120209E
:10056000015500BF206B002802D02046216B884730
:1005700070BD000070B504460025002C01D101209B
:1005800070BD0221212001552068056811480540F1
:10059000A16860680843E16808432169084361690C
:1005A0000843A1690843E1690843054320680560E1
:1005B0002046FFF7FDFE0020A062E062206360633A
:1005C000A063012121200155002120200155002098
:1005D000D6E700000FC0FFFFF8B504460D461646EB
:1005E0001F460020009000BF2020005D012801D19F
:1005F0000220F8BD01212020015500BF2120005D0F
:1006000001282DD10221212001550020A06320685E
:10061000006840084000216808603B463246294691
:100620002046FFF7D5FEE06A002806D02068006863
:100630000E210843216808600BE0206800680A2149
:100640000843216808602068006804218843216805
:10065000086020680068012108432168086006E0FE
:1006600000BF00212020015500BF0220009000980B
:10067000BFE70000F0B502460B4600200021002431
:100680006FE0012585401D402946002968D0156886
:1006900047000326BE40B5431560C508AE001546A9
:1006A0002035AD594607F70E0F26BE40B543C608A4
:1006B000B60017462037BD51956847000326BE4057
:1006C000B5439560556801268640B5435560D568A9
:1006D00047000326BE40B543D560244D8608B600CA
:1006E000AC5985072E0F0F25B5402C400925ED0686
:1006F000AA4201D100250FE01D4DAA4201D10125DA
:100700000AE01C4DAA4201D1022505E01A4DAA4279
:1007100001D1032500E005258607360FB540A54227
:100720001ED185072E0F0F25B5402C460F4D86088C
:10073000B600AD59A5430D4E8708BF00F5510F4DCA
:100740002D688D430D4E356035466D688D4375605F
:100750003546AD688D43B5603546ED688D43F5602F
:10076000401C1D46C540002D8BD1F0BD0800014046
:100770000004004800080048000C00480004014044
:1007800078B50346002200240020DEE001269640D2
:100790000D6835402C46002C7ED04D68022D02D0CD
:1007A0004D68122D15D1D508AE001D462035A8592B
:1007B0005507EE0E0F25B5400646AE4330465607A8
:1007C000F60E0D69B5402843D508AD001E4620360B
:1007D0007051186856000325B5400646AE433046B2
:1007E0000D79AD07AD0F5600B540284318604D6830
:1007F000012D08D04D68022D05D04D68112D02D075
:100800004D68122D18D1986856000325B54006464C
:10081000AE4330465600CD68B540284398605868CE
:10082000012595400646AE43304610264D683540BA
:100830002D09954028435860D86856000325B540D7
:100840000646AE43304656008D68B5402843D86012
:10085000012636074D683540B54275D100BF3E4D83
:10086000AD69012635433C4EB5613546AD69ED07AE
:10087000ED0F009500BF00BF384D9608B600A8598F
:1008800095072E0F0F25B5400646AE433046092585
:10089000ED06AB4203D100E056E000250FE0304DFD
:1008A000AB4201D101250AE02E4DAB4201D1022518
:1008B00005E02D4DAB4201D1032500E0052596074B
:1008C000360FB5402843254D9608B600A851274D50
:1008D00028680546A5432846012636044D6835405C
:1008E000B54202D1054625432846204D2860686858
:1008F0000546A5432846012676044D683540B54295
:1009000002D1054625432846184D6860A86805466B
:10091000A5432846012636054D683540B54202D12B
:10092000054625432846114DA860E8680546A543BD
:100930002846012676054D683540B54202D1054668
:1009400025432846094DE860521C0D68D540002D0E
:1009500000D01BE778BD00000010024008000140F5
:100960000004004800080048000C00480004014052
:10097000002A01D0816100E081627047014800686F
:10098000704700000400002002480068401C014934
:10099000086070470400002010B506480068102168
:1009A000084304490860032000F006F800F017F837
:1009B000002010BD0020024070B5044600F02CF964
:1009C00006467D21C900FFF78FFB054600F046FC77
:1009D00000222146501E00F02FF8002070BD704705
:1009E0000146002915DBCB06DB0E01229A400A4B9B
:1009F0001A6000BF00BF00BFBFF34F8F00BF00BF32
:100A000000BF00BF00BF00BFBFF36F8F00BF00BFBC
:100A100000BF00BF7047000080E100E001460029F0
:100A200005DBCB06DB0E01229A40024B1A6000BFA9
:100A30007047000000E100E070B504460D46164620
:100A40002946204602F0EEFC70BD000070B5044659
:100A50000D4600265D480068C007C00FA8420ED2B0
:100A60005A48006840084000284358490860084632
:100A70000068C007C00FA84201D0012070BD02214C
:100A800020680840022807D151484068F021884377
:100A9000A16808434E4948602078C007C00F00286D
:100AA0005FD06068012808D14948006801214904E5
:100AB0000840002815D10120E0E76068022808D12D
:100AC00043480068012149060840002809D1012057
:100AD000D4E73F48006802210840002801D10120E6
:100AE000CCE73B484068800880006168084338498B
:100AF0004860FFF743FF0646606801280FD107E012
:100B0000FFF73CFF801B3349884201D90320B5E73A
:100B10002F4840680C2108400428F1D121E060688A
:100B200002280FD107E0FFF729FF801B29498842DF
:100B300001D90320A2E7264840680C210840082874
:100B4000F1D10EE007E0FFF719FF801B2149884231
:100B500001D9032092E71E4840680C210840002874
:100B6000F1D11A480068C007C00FA8420ED9174833
:100B7000006840084000284314490860084600689F
:100B8000C007C00FA84201D0012077E704212068E8
:100B90000840042808D10E4840680721090288430C
:100BA000E16808430A49486000F04EF8084949687E
:100BB000F02211400909084A515CC8400749086001
:100BC0000320FFF7F9FE002058E700000020024054
:100BD0000010024088130000C0350008000000200B
:100BE000072202600A4A52689207920F4260084A3E
:100BF0005268F0231A408260054A526807231B029C
:100C00001A40C260034A1268D207D20F0A607047C6
:100C100000100240002002400148006870470000B8
:100C20000000002000B5FFF7F7FF054949680722DB
:100C300012021140090A034A515CC84000BD00007D
:100C400000100240D0350008F0B589B025A001465B
:100C50000EC9C06805AC0EC4089026A001460EC996
:100C6000C06801AC0EC404900024002600270025B3
:100C700000200090234844680C20204000282AD0FF
:100C8000042802D0082825D102E01F48009025E062
:100C90000F2080042040800C05A90D5C1948C06A13
:100CA0000007000F01A90E5C0320C00320400121B2
:100CB0000904884206D131461348FFF715FA684304
:100CC000074605E031461048FFF70EFA684307462D
:100CD000009703E000BF0C48009000BF00BF0098E1
:100CE00009B0F0BD02030405060708090A0B0C0D44
:100CF0000E0F10100102030405060708090A0B0C69
:100D00000D0E0F100010024000127A00F8B50446D4
:100D100000252078C007C00F002872D0FA4840682C
:100D20000C21084004280CD0F748406808400828E7
:100D300013D1F5484068490308400121090488425D
:100D40000BD1F148006801214904084000286BD00C
:100D50006068002868D10120F8BD00BF60680128E4
:100D600007D1E9480068012109040843E649086001
:100D700031E0606800280ED1E348006801210904D1
:100D80008843E149086008460068012189048843D6
:100D9000DD4908601FE0606805280ED1DA48006868
:100DA000012189040843D8490860084600680121E8
:100DB00009040843D44908600DE0D34800680121C4
:100DC00009048843D0490860084600680121890465
:100DD0008843CD49086000BF6068002812D0FFF743
:100DE000CDFD054606E0FFF7C9FD401B642801D98B
:100DF0000320B1E7C44800680121490408400028E5
:100E0000F1D011E0FFF7BAFD054606E0FFF7B6FDA9
:100E1000401B642801D903209EE7BB4800680121DC
:100E2000490408400028F1D1022120680840022826
:100E300062D1B54840680C21084000280CD0B24867
:100E40004068084008281CD1AF4840684903084062
:100E50000121C903884214D1AB480068022108402F
:100E6000002804D0E068012801D0012074E7A648DA
:100E70000068F82188432169C9000843A249086035
:100E80003AE0E068002820D09F480068012108432C
:100E90009D490860FFF772FD054606E0FFF76EFD0D
:100EA000401B022801D9032056E797480068022119
:100EB00008400028F2D094480068F821884321694E
:100EC000C90008439049086016E08F480068400850
:100ED00040008D490860FFF751FD054606E0FFF729
:100EE0004DFD401B022801D9032035E786480068E4
:100EF000022108400028F2D1082120680840082873
:100F000031D1E069002817D07F48406A01210843A9
:100F10007D494862FFF732FD054606E0FFF72EFDEA
:100F2000401B022801D9032016E77748406A0221B6
:100F300008400028F2D016E07348406A400840009C
:100F400071494862FFF71AFD054606E0FFF716FDF6
:100F5000401B022801D90320FEE66B48406A0221AB
:100F600008400028F2D1042120680840042871D1EB
:100F700000266548C0698906084000280DD100BFD9
:100F80006148C06908436049C8610846C0690904EE
:100F90000840009000BF00BF01265C480068FF21A8
:100FA00001310840002816D15848006808435749C5
:100FB0000860FFF7E3FC054606E0FFF7DFFC401B97
:100FC000642801D90320C7E650480068FF21013199
:100FD00008400028F1D000BFA068012806D14A4887
:100FE000006A01210843484908622BE0A0680028F4
:100FF0000CD14548006A4008400043490862084651
:10100000006A04218843404908621BE0A068052863
:101010000CD13D48006A042108433B490862084658
:10102000006A01210843384908620BE03648006A2B
:1010300040084000344908620846006A0421884399
:101040003149086200BFA068002813D0FFF796FC62
:10105000054608E029E0FFF791FC401B2C49884237
:1010600001D9032078E62848006A022108400028B8
:10107000F1D011E0FFF782FC054607E0FFF77EFCA8
:10108000401B2349884201D9032065E61E48006AB7
:10109000022108400028F1D1012E05D11A48C0696B
:1010A000310788431849C86100BF102120680840F3
:1010B00010285FD1606901282CD11348406B0421AE
:1010C0000843114948630846406B012108430E4913
:1010D0004863FFF753FC054606E0FFF74FFC401B53
:1010E000022801D9032037E60748406B0221084057
:1010F0000028F2D00448406BF8218843A169C90058
:1011000008430149486335E0001002400070004088
:10111000881300006069401D00280FD14E48406BC5
:10112000042188434C4948630846406BF8218843B2
:10113000A169C9000843484948631BE04648406B21
:1011400004210843444948630846406B4008400076
:101150004863FFF713FC054606E0FFF70FFC401B52
:10116000022801D90320F7E53B48406B02210840E3
:101170000028F2D1206A00286CD0374840680C2142
:101180000840082864D0206A022847D13248006805
:1011900001210906884330490860FFF7EFFB054647
:1011A00006E0FFF7EBFB401B022801D90320D3E543
:1011B000294800680121490608400028F1D100BFF4
:1011C0002548C06A00090001E16A08432249C86253
:1011D000616AA06A0843204949687B22D20391438F
:1011E00008431D49486000BF084600680121090600
:1011F000084319490860FFF7C1FB054606E0FFF701
:10120000BDFB401B022801D90320A5E51248006858
:101210000121490608400028F1D01BE00E48006873
:101220000121090688430C490860FFF7A7FB054622
:1012300006E0FFF7A3FB401B022801D903208BE542
:10124000054800680121490608400028F1D101E065
:10125000012081E500207FE50010024070B50446C2
:101260002546681E0949884201D901200CE0681E04
:10127000074948610321081F02F0D4F800200449FF
:10128000886107200861002070BD0000FFFFFF009B
:1012900000E000E07047704710B50446002C01D113
:1012A000012010BD3D20005D002805D100213C201B
:1012B0000155204600F00CF802213D200155211D6A
:1012C000206801F0FBFA01213D2001550020E8E7EC
:1012D00038B504461A492068884216D100BF19481B
:1012E000C069022108431749C8610846C069022144
:1012F0000840009000BF00BF012200211020FFF72E
:101300009BFB1020FFF78AFB19E00F4920688842F9
:1013100015D100BF0B48C069102108430949C861B5
:101320000846C06910210840009000BF00BF01229C
:1013300000211120FFF780FB1120FFF76FFB38BD64
:101340000004004000100240001000400146086800
:10135000C068012210430A68D06008680068012252
:1013600010430A68106000207047000070B5064600
:1013700000250021124800F014F981B211480468D8
:10138000601C104A106060000F4A11520D4800683E
:10139000022813D310460088691E081A114649888E
:1013A0004018401C85B2294608480068FEF79CFE9C
:1013B0000749086008460068C000086070BD00006A
:1013C00090000020140000200C00002000000020ED
:1013D0001000002010B50446206800690221084072
:1013E000400800281CD02068C06808404008002839
:1013F00016D0481F21680861012020772068806985
:101400008007800F002803D02046FFF7AFFF05E0DC
:10141000204600F0C3F8204600F0C1F800202077F5
:101420002068006904210840800800281DD0206839
:10143000C06808408008002817D0C84321680861A8
:1014400002202077206880690321090208400028D3
:1014500003D02046FFF78AFF05E0204600F09EF803
:10146000204600F09CF800202077206800690821C1
:101470000840C00800281CD02068C0680840C00888
:10148000002816D0C843216808610420207720680E
:10149000C0698007800F002803D02046FFF766FF51
:1014A00005E0204600F07AF8204600F078F80020A9
:1014B00020772068006910210840000900281DD00D
:1014C0002068C06808400009002817D0C843216878
:1014D0000861082020772068C069032109020840BC
:1014E000002803D02046FFF741FF05E0204600F02A
:1014F00055F8204600F053F8002020772068006956
:10150000C007C00F01214840484000280CD0206887
:10151000C068084048404840002805D0C81E2168DF
:101520000861204600F03CF82068006980210840EE
:10153000C00900280BD02068C0680840C0090028F6
:1015400005D0C843216808612046FFF7A3FE206844
:10155000006940210840800900280BD02068C0683D
:1015600008408009002805D0C8432168086120464A
:1015700000F043F820680069202108404009002855
:101580000BD02068C06808404009002805D0C84337
:10159000216808612046FFF77EFE10BD7047704746
:1015A000704710B50246002300BF3C20805C012834
:1015B00001D1022010BD01243C20845400BF002929
:1015C00006D0042907D0082908D00C290CD108E03E
:1015D0001068436B09E01068836B06E01068C36B0A
:1015E00003E01068036C00E000BF00BF00BF0024F0
:1015F0003C20845400BF1846DCE77047FEB5046801
:10160000E269046823680024029401941407240FFB
:101610000194019C002C43D120241440002C3FD085
:1016200020241C40002C3BD00468A48C0094009C17
:10163000E5B2FF240B344C43464EA619FF240B346D
:101640004C43444FE419803464783555FF240B34FF
:101650004C433D46641980346478641CE5B2FF2431
:101660000B344C433E46A41980346570802D06DB54
:101670000025FF240B344C43A419803465700525E4
:10168000FF240B344C43334EA419FF34013425811D
:101690000125FF240B344C43A4198034E570FEBDB2
:1016A0000468A4680294019C002C50D0029CE407BA
:1016B000E40F002C04D1FF2421341C40002C46D020
:1016C000D407E40F002C0BD0FF2401341C40002C65
:1016D00006D0012405682C62C46E01252C43C46623
:1016E00002241440002C0BD0029CE407E40F002CD1
:1016F00006D0022405682C62C46E04252C43C466FF
:1017000004241440002C0BD0029CE407E40F002CAE
:1017100006D0042405682C62C46E02252C43C466DE
:1017200008241440002C12D020241C40002C04D18A
:10173000029CE407E40F002C09D0082405682C6201
:101740000468A48C0094C46E08252C43C46600BFB2
:10175000A5E70000F0090020FEB504462068C56931
:101760002068066820688768002001902807000F1D
:1017700001900198002879D0F807C00F002804D103
:10178000FF2021303040002870D0E807C00F00282B
:101790000BD0FF2001303040002806D00120216806
:1017A0000862E06E01210843E0660220284000281C
:1017B0000AD0F807C00F002806D00220216808626E
:1017C000E06E04210843E0660420284000280AD087
:1017D000F807C00F002806D0042021680862E06ED8
:1017E00002210843E0660820284000280ED020206F
:1017F0003040002803D1F807C00F002806D0082089
:1018000021680862E06E08210843E066E06E002867
:101810002BD020202840002809D02020304000284C
:1018200005D0206880690821084321688861E06E3E
:1018300000902068806840210840002804D10821D9
:101840000098084000280ED020680068FF21213150
:10185000884321680860206880684008400021684B
:10186000886002E002E00020E066FEBD2068C069FA
:1018700010210840102803D1204601F09FFDF4E715
:1018800040202840002807D040203040002803D0C6
:10189000204601F0A6F9E8E700BFE6E710B50446E8
:1018A0006920005D212813D12068806880210840CC
:1018B00000280DD020688068884321688860206EE9
:1018C000002802D0206EFEF798FD204601F099F91D
:1018D0006A20005D222813D12068806840210840DA
:1018E00000280DD020688068884321688860606E79
:1018F000002802D0606EFEF780FD204601F060F9FE
:10190000002010BD10B50446002C01D1012010BDEF
:1019100024216920015520680068400840002168A2
:10192000086000202168086021684860216888609C
:10193000204600F04FF80020E066002169200155A4
:101940006A20015500BF6820015500BF0020DEE776
:10195000704710B50446002C01D1012010BDA069CC
:10196000002800D000E000BF6920005D002805D1FC
:10197000002168200155204600F00EF9242169203D
:101980000155206800684008400021680860204632
:1019900001F042F9012800D1E0E7606A002802D096
:1019A000204601F02EF8206840680121C9028843D2
:1019B0002168486020688068082188432168886021
:1019C000206800680121084321680860204601F072
:1019D00090F8C3E710B5044667492068884222D1D1
:1019E0006648006901210905084364490861084601
:1019F0000069012109058843604908610846C069FA
:101A00000121090588435D49C86118215C48FEF73A
:101A100031FE206EFEF70DFD606EFEF70AFD1D2003
:101A2000FEF7DEFFA6E05749206888421ED15348E2
:101A3000C0680121890308435049C8600846C0684E
:101A40000121890388434D49C86008468069012106
:101A50008903884349498861032149020920C00656
:101A6000FEF708FE1B20FEF7BBFF83E04649206817
:101A700088421DD1414800690121490408433F497A
:101A80000861084600690121490488433B4908610F
:101A90000846C0690121490488433849C8610C21BE
:101AA0000920C006FEF7E6FD1C20FEF799FF61E065
:101AB0003649206888421DD13048006901218904D7
:101AC00008432E49086108460069012189048843BA
:101AD0002A4908610846C0690121890488432749C9
:101AE000C861032189022648FEF7C4FD1D20FEF7C8
:101AF00077FF3FE02649206888421DD11F480069D2
:101B00000121C90408431D490861084600690121F3
:101B1000C9048843194908610846C0690121C904FC
:101B200088431649C86103210920C006FEF7A2FDBB
:101B30001D20FEF755FF1DE016492068884219D187
:101B40000E48C068202108430C49C8600846C06898
:101B5000202188430949C8600846806920218843BC
:101B60000649886130210920C006FEF783FD1D204B
:101B7000FEF736FF10BD000000500040001002408C
:101B80000004004800380140004400400048004084
:101B9000004C00400014014010B586B00446E949ED
:101BA000206888427ED100BFE7484069012189044E
:101BB0000843E54948610846406901218904084015
:101BC000009000BF00BF00BFDF48C0698900084324
:101BD000DD49C8610846C069012109050840009037
:101BE00000BF00BF00BFD848406901210843D64963
:101BF000486108464069C007C00F009000BF00BFA1
:101C000018200190022002900120039003200490EC
:101C10000420059001A9CD48FEF7B2FDCC48CD497E
:101C20000860102048600021CA4881608021C1609E
:101C3000002101614161816101214903C161FEF718
:101C400099FC00BFC2486430806AF0218843C049D3
:101C5000643188620846806AC0210843BC49643107
:101C6000886200BF00BFBB482066446200BFB8481E
:101C70001438B9490860002048600021B6488160E6
:101C80008021C1600021016141618161012149031D
:101C9000C161FEF76FFC00BFAD486430806A000987
:101CA000000100E029E0AA49643188620846806AA0
:101CB0000C210843A6496431886200BF00BFA648D2
:101CC0006066446200BF10202168086220680068D6
:101CD0001021084321680860012211460A20FEF7FE
:101CE000ABFE0A20FEF79AFE002201211D20FEF71E
:101CF000A3FE1D20FEF792FE22E19849206888424B
:101D000037D100BF904840690121490408438E49FA
:101D1000486108464069012149040840009000BF1D
:101D200000BF00BF88488069C910084386498861A0
:101D300008468069012189030840009000BF00BF68
:101D40000320400201900220029001200390032012
:101D500004900120059001A90920C006FEF710FD9E
:101D6000022200211D20FEF767FE1B20FEF756FE13
:101D7000E6E07B492068884235D100BF7248C069DF
:101D80000121490408437049C8610846C06901211E
:101D900049040840009000BF00BF00BF6A48406986
:101DA00008436949486108464069012149040840DF
:101DB000009000BF00BF0C20019002200290012083
:101DC0000390032004900120059001A90920C0067A
:101DD000FEF7D6FC022200211C20FEF72DFE1C205F
:101DE000FEF71CFEACE05F492068884235D100BF99
:101DF0005548C0690121890408435349C861084610
:101E0000C069012189040840009000BF00BF00BFE5
:101E10004D48406908434C494861084640690121E2
:101E200089040840009000BF00BF03208002019099
:101E300002200290012003900320049004200590CA
:101E400001A94248FEF79CFC022200211D20FEF75A
:101E5000F3FD1D20FEF7E2FD72E043492068884251
:101E600036D100BF3848C0690121C904084336494A
:101E7000C8610846C0690121C9040840009000BF3C
:101E800000BF00BF30484069891008432E494861AF
:101E900008464069012149040840009000BF00BF86
:101EA000032001900220029001200390032004905F
:101EB0000420059001A90920C006FEF761FC02225A
:101EC00000211D20FEF7B8FD1D20FEF7A7FD37E01D
:101ED00026492068884233D100BF1B4880692021F1
:101EE000084319498861084680692021084000900C
:101EF00000BF00BF00BF14484069090308431249EE
:101F0000486108464069012149040840009000BF2B
:101F100000BF302001900220029001200390032096
:101F200004900520059001A90920C006FEF728FCB1
:101F3000022200211D20FEF77FFD1D20FEF76EFD11
:101F400006B010BD005000400010024000040048E0
:101F50001C000240B0170020F41700200038014098
:101F60000044004000480040004C00400014014084
:101F700070B504460D4616466A20005D202854D1EF
:101F8000002D01D0002E01D1012070BD01210903D7
:101F9000A068884208D12069002805D1E807C00F51
:101FA000002801D00120F0E700BF6820005D012873
:101FB00001D10220E9E701216820015500BF6565D4
:101FC000582006530020E06622216A200155184857
:101FD000616E88621748616EC8621748616E086357
:101FE0000020616E48632368194624313346626DD0
:101FF000606EFEF7F1FA00BF00216820015500BFB6
:1020000020680068FF2101310843216808602068CA
:102010008068012108432168886020688068402129
:102020000843216888600020AFE70220ADE7000088
:10203000672B0008B32B0008112B0008704770476E
:10204000FEB504460D4616461F4600200190692045
:10205000005D20286AD1002D01D0002E01D1012081
:10206000FEBD01210903A068884208D1206900282B
:1020700005D1E807C00F002801D00120F0E700BF1C
:102080006820005D012801D10220E9E701216820D4
:10209000015500BF0020E066212169200155FEF7AF
:1020A0006DFC0190502006535220065325E052202B
:1020B000005B401E81B25220015300970022802114
:1020C0002046019B00F0BAFE002801D00320C7E79C
:1020D00001210903A06888420BD12069002808D19A
:1020E0000295029D2888C005C00D21680885AD1C99
:1020F00003E028786D1C216808855220005B0028C9
:10210000D5DC0097002240212046019B00F096FE7E
:10211000002801D00320A3E720216920015500BF3A
:1021200000216820015500BF002099E7022097E7B1
:1021300070470000FFB581B005461646002D46D019
:10214000002E44D00498002841D0642E3ADA0127AA
:10215000AD06AD0E274C2AE028463840002823D093
:102160002078022808DA38462349097808402349AC
:102170000978084321490870002020700498A08045
:10218000A670029860700298002803D1207804217C
:1021900008432070FEF7F2FBA0602078022108437C
:1021A00020702846784005467806070E0C34002D2E
:1021B000D2D113480123002211460090114800F0AB
:1021C00019FC08E00121284600F0A2F803E00021F4
:1021D000284600F09DF8084800782840002801D1E2
:1021E000012000E0002006463146284600F00CF8A9
:1021F00005B0F0BD34000020080000200A000020D7
:10220000A52300086818002070B504460D46E007B5
:10221000C00F00280ED0012D06D1012280210920F7
:10222000C006FEF7A5FB05E0002280210920C006BC
:10223000FEF79EFB0220204000280CD0012D05D186
:10224000012211463048FEF793FB04E000220121F1
:102250002D48FEF78DFB0420204000280CD0012DD6
:1022600005D1012202212848FEF782FB04E000226A
:1022700002212548FEF77CFB0820204000280CD0D6
:10228000012D05D1012204211F48FEF771FB04E056
:10229000002204211C48FEF76BFB10202040002880
:1022A0000FD0012D06D1012211020920C006FEF730
:1022B0005FFB06E00022FF2101310920C006FEF786
:1022C00057FB2020204000280CD0012D05D10122F1
:1022D00020210D48FEF74CFB04E0002220210A4893
:1022E000FEF746FB002D05D008480078204307493B
:1022F000087007E02046FF2148400449097808405B
:102300000249087070BD0000000400480800002069
:10231000F8B505460E46330001F075F809171606A4
:10232000360E3636361836007D23DB001E2201219C
:102330002846FFF7FFFE28E07D23DB001E22322126
:102340002846FFF7F7FE20E000BF00BF0127AD06DB
:10235000AD0E124C15E02846384000280ED0082E4D
:1023600001D0267003E020780121484020702178B8
:102370003846FFF749FF2846784005467806070E9D
:102380000C34002DE7D100E000BF00BF31462846E5
:10239000FFF73AFF02480078F8BD00003400002043
:1023A00008000020F0B585B0002701253F200290ED
:1023B0004B4C20464030007A00287DD180E00298C6
:1023C0002840002877D020780221084000286FD0CC
:1023D000FEF7D4FA0646A168B1425CD82078C0075F
:1023E000C00F002818D0A0786421081AC0B203904A
:1023F000207840084000207000212846FFF704FFA5
:1024000020780421084000281CD16078FF2819D0CA
:102410006078401E607015E06078002809D120784F
:1024200004210840002804D120780221484020706F
:1024300008E0A07803902078012108432070284606
:10244000FFF7E2FE20780221084000280CD0A18886
:10245000039A514308466421FDF746FE80B201907D
:1024600001983018A0601AE0002001901D48007803
:102470002840002801D0012000E000200146284625
:10248000FFF746FF2846FF214840164909780840D3
:102490001449087003E02089801B80B20190002F4E
:1024A00005D00198002803D00198B84200DA019FB6
:1024B00002986840029000E010E06806050E0C34B7
:1024C0000298002800D07AE7002F07D006480023A2
:1024D000012239460090054800F08CFA05B0F0BDA5
:1024E000340000200A000020A523000868180020FE
:1024F000F0B50346002030E0FF240B345443204D58
:10250000641980342478FF250B3555431C4EAD19D2
:1025100080352D786D1CEEB2FF250B355543184FD5
:10252000ED1980352E70FF250B3555433E46AD190C
:102530002C5D1C705B1CFF240B345443354664191E
:1025400080342478802C06DB0025FF240B34544390
:10255000A41980342570441CA0B2FF240B345443CA
:10256000074D641980342578FF240B345443044EFE
:10257000A41980346478A54201D08842BCDBF0BD48
:10258000F00900200146FF200B3048430F4BC018D4
:1025900080304278FF200B304843C01880300078EC
:1025A000904207DCFF200B304843C0188030007891
:1025B000101A09E0FF200B304843044BC01880304C
:1025C00000788023181A801880B27047F009002024
:1025D00000BFFEE700B50249024800F07FF800BDE9
:1025E000ED250008381800207047704710B51348D3
:1025F0000468002012494871012008711420086005
:10260000002C19D0207B002804D100F047F80B489B
:10261000046802E0207B401E2073A2880023DB4375
:102620000848A168FFF70CFD00F038F814231A469B
:1026300001212020FFF77EFD10BD000018000020C2
:1026400038180020500100207047000070B5054682
:102650000E460024102000F07DFF0446002C04D11B
:10266000284600F02FFF012070BD0B4800680028AD
:1026700002D10948046002E0074840680460A56090
:10268000A680002020600120207300206073024893
:1026900044600020E8E700001800002010B50E4854
:1026A0000068046800200C49096888800A490968A4
:1026B00008730949096848730749096808600649A9
:1026C0000968886800F0FEFE0349086800F0FAFE19
:1026D00001480460002010BD1800002000220260A4
:1026E0000271012242718160704730B502460B468B
:1026F00000240020002103E0555C2C194D1CE9B298
:102700009942F9DBE0B230BD10B5FEF73DF910BDDE
:1027100000B591B001200190029002200990C10300
:102720000A91C1040B9100210C9101A8FEF7EEFA69
:10273000002801D000BFFEE707200D9002200E9078
:1027400000200F90109001210DA8FEF77FF90028BE
:1027500001D000BFFEE711B000BD000019480068BD
:102760000121084317490860084640681649084097
:102770001449486008460068144908401149086037
:10278000084600680121890488430E49086008460C
:1027900040683F21090488430A4948600846C06AE6
:1027A00000090001C8620846006BFF21143188430C
:1027B000044908630846406B400840004863002015
:1027C00088607047001002400CB8FF08FFFFF6FE5B
:1027D00010B50248FEF7FEFD10BD0000900000207D
:1027E0000B4800680069C007C00F012148404840FD
:1027F00000280BD006480068C068084048404840A0
:10280000002803D0C81E024909680861704700000B
:102810001001002010B50D4800680069C007C00F06
:1028200001214840484000280FD008480068C0688F
:10283000084048404840002807D0C81E034909689E
:10284000086100F08BF800F045FD10BDD0000020BD
:1028500070B586B00025002601A902A8FEF7C0F9D0
:10286000059D002D03D1FEF7DDF9044602E0FEF7D9
:10287000D9F944000D492046FDF736FC461E0C48A8
:102880000C4908600C490B48C16046600021016199
:1028900081608161FEF700FD002804D10548FEF744
:1028A00055FD06B070BD0120FBE7000040420F005F
:1028B00000100040D0000020E703000010B5002207
:1028C0000268204B984202D01F4B984205D17024D9
:1028D0001346A3431A464B681A431A4B98420ED02C
:1028E000194B98420BD0194B984208D0184B98427C
:1028F00005D0184B984202D0174B984206D10324BA
:1029000024021346A3431A46CB681A438024134675
:10291000A3434C6923431A4602608B68C3620B6869
:102920008362084B984208D0094B984205D0094B66
:10293000984202D0084B984201D10B6903630123EE
:10294000436110BD002C0140000400400020004005
:10295000004001400044014000480140002000BF09
:1029600024E00C214143134A8918097900291BD01E
:102970000C2141435158002908D00C2141435158A2
:10298000491E0C2242430B4B99500DE000220C21B2
:102990004143084BC9180A710C2141435A50012286
:1029A0000C214143C9184A71411CC8B20528D8DB23
:1029B000704700003818002010B5002414E00C20E7
:1029C00060430B494018407900280BD00C2060432D
:1029D00040188068002805D00C216143044A8918FA
:1029E00088688047601CC4B2052CE8DB10BD00007D
:1029F0003818002010B5029C016002714371846098
:102A000010BD818CC907C90F002908D00168496829
:102A1000012252049143826A1143026851600222EA
:102A2000416A1140002907D001684968D2039143E7
:102A3000C26A1143026851600422416A11400029B0
:102A400007D00168496812049143026B1143026880
:102A500051600822416A1140002907D00168496885
:102A600012039143426B1143026851601022416A84
:102A70001140002907D00168896812029143826BD6
:102A80001143026891602022416A1140002907D059
:102A90000168896812029143C26B11430268916018
:102AA0004022416A1140002915D00168496892030B
:102AB0009143026C11430268516001221205016CBE
:102AC000914208D101684968032252059143426C42
:102AD0001143026851608022416A1140002907D0E9
:102AE0000168496812039143826C11430268516086
:102AF000704701460020C8662022692042546A209F
:102B0000425400BF00226820425400BF002070479A
:102B100070B505466C6A6920005D21280BD12068DC
:102B2000806880210840002805D0002152200153F0
:102B3000204600F066F86A20005D22280BD120684C
:102B4000806840210840002805D000215A20015308
:102B5000204600F035F8E06E10210843E06620467C
:102B6000FEF7F6FE70BD70B505466C6A2868006811
:102B700020210840002818D100215A200153206844
:102B80000068FF210131884321680860206880685F
:102B900040084000216888602068806840218843A0
:102BA0002168886020216A2001552046FFF746FAF7
:102BB00070BD70B50446656A2846FFF740FA70BDDF
:102BC00001680968FF22213291430268116001689F
:102BD0008968490849000268916020226A210A54E4
:102BE000704710B50446206800684021884321687A
:102BF00008602021692001552046FFF799FA00203E
:102C000010BD01680968C02291430268116020224A
:102C100069210A5470470000FEB5044600251026BD
:102C200000270020029001902169A0680843616993
:102C30000843E16908430546206800687449084074
:102C400028432168086020684068032109038843FD
:102C5000E168084321684860216AA0690843054685
:102C6000206880680B210902884328432168886016
:102C700000BF68492068884217D16748006B800709
:102C8000800F002806D0012808D0022808D0032889
:102C900008D101E0002607E0022605E0042603E053
:102CA000082601E0102600BF1EE05C49206888422B
:102CB00001D1002618E05A492068884201D1002637
:102CC00012E058492068884201D100260CE056499C
:102CD0002068884201D1002606E0544920688842D5
:102CE00001D1002600E0102600BF0121C903E069E0
:102CF000884249D1042E20D004DC002E07D0022EB9
:102D000032D111E0082E25D0102E2DD12DE0FDF767
:102D100089FF400061684908401800906168FDF72C
:102D2000E3F980B2029023E061684A08404BD01872
:102D3000FDF7DAF980B202901AE0FDF785FF400056
:102D400061684908401800906168FDF7CDF980B2CC
:102D500002900DE061684A0801231B04D018FDF7BA
:102D6000C3F980B2029003E000BF0120019000BFD0
:102D700000BF304902980840074602980007400FFC
:102D800007432068C76040E0042E21D004DC002EF9
:102D900007D0022E34D111E0082E26D0102E2FD1CC
:102DA0002FE0FDF73FFF6168490840180090616817
:102DB000FDF79AF980B22168C86025E061684A0889
:102DC0001D4BD018FDF790F980B22168C8601BE058
:102DD000FDF73AFF61684908401800906168FDF707
:102DE00083F980B22168C8600EE061684A08012357
:102DF000DB03D018FDF778F980B22168C86003E0E2
:102E000000BF0120019000BF00BF0198FEBD00007F
:102E1000F369FFEF00380140001002400044004019
:102E200000480040004C00400050004000140140A9
:102E30000024F400F0FF000000127A00FFB581B01A
:102E400004460D4617460A9E24E0701C002821D037
:102E5000002E05D0FDF792FD0499401AB04219D911
:102E600020680068FF21A13188432168086020683C
:102E70008068400840002168886020216920015551
:102E80006A20015500BF00216820015500BF0320C2
:102E900005B0F0BD2068C0692840A84201D10120DA
:102EA00000E00020B842D0D00020F1E770B506461F
:102EB0000C46154628023249401860652802401821
:102EC0008030E06480215820015350200153266057
:102ED0004B20000260600021A160E1602161A161DE
:102EE0000C216161002060622046FEF70BFD204648
:102EF000FEF72FFD002805D001213F20FFF708FA3B
:102F000000BFFEE700BF01210903A06888420AD183
:102F10002069002803D11B495C20015320E0FF21D8
:102F20005C2001531CE0A06800280AD12069002819
:102F300003D1FF215C20015312E07F215C2001536B
:102F40000EE001210907A068884209D12069002804
:102F500003D17F215C20015302E03F215C2001531B
:102F600000BF2068806801210843216888602068CC
:102F70000068FF21213108432168086070BD00000E
:102F8000F0030020FF01000010B504210148FEF706
:102F900035FB10BD8003002010B501210148FEF76C
:102FA0002DFB10BD3002002010B500210748FEF7B0
:102FB00025FB02210548E030FEF720FB03210448F1
:102FC000FEF71CFB0348FEF7C7FB10BDC001002045
:102FD000100300205001002010B52048204948650A
:102FE0008030C86480211E484030018301821D4822
:102FF0001B4908604B20000248600021184881608E
:10300000C160016181610C21416100201449486265
:103010000846FEF777FC1248FEF79BFC002805D017
:1030200001213F20FFF774F900BFFEE70C4800685C
:103030008068012108430A490968886008480068D7
:1030400000682821084306490968086004484030A0
:10305000028B4038416DFEF78BFF10BDF008002059
:103060005001002000500040FEB50025002600273A
:10307000002400200190009075490870E1E0744838
:103080000078FF210B314843724940188030807826
:1030900001287DD100216E480078FF220B32504379
:1030A0006C4A80188030817069480078FFF76AFAAE
:1030B0006949087008460078002869D0674D2C4699
:1030C00063480278084601782046FFF711FA40214C
:1030D0002046FDF757F8044623212046FDF752F815
:1030E0000190002C7AD0019800287DD05CA1204668
:1030F000FDF734F8002834D059A12046FDF72EF80A
:1031000004460A220021201DFDF74DF8564908709B
:103110000846007804281FDC08460078303020710B
:103120002046FDF739F8C7B2384600F013FA0646D4
:10313000002E11D03A4621463046FCF7EBFF3946C7
:103140003046FFF783FA4949414A1278885C5A238E
:103150001E220121FEF7EEFF64214048FCF7F3FF39
:10316000FEBD43A12046FCF7F9FF002837D041A15E
:103170002046FCF7F3FF04460A220021601DFDF7FC
:1031800012F83949087008460078042821DC00E06C
:1031900052E008460078303060712046FCF7FCFFB2
:1031A000C7B2384600F0D6F90646002E11D03A468E
:1031B00021463046FCF7AEFF39463046FFF746FA67
:1031C0002A49234A1278885C5A231E220121FEF7DD
:1031D000B1FF64212148FCF7B6FFC1E704E0642198
:1031E0001E48FCF7B0FFBBE71DE028785A2814D131
:1031F0000B212846FFF779FAE97A884206D10C229A
:1032000029461348007800F0A9F810E06D1C124818
:103210000078401E1049087005E06D1C0E480078CB
:10322000401E0D4908700C4800780C28DDDA00BFFC
:1032300064210A48FCF787FF05480078401C0449D0
:10324000087003480078052800DA18E700BF87E710
:1032500020000020F0090020210000207418002028
:103260004052502C0000000024000020D8350008F7
:1032700052494400405249442C00000010B500223D
:103280000D490E48FFF712FE01220B4970310C4820
:10329000FFF70CFE02220849E0310A48FFF706FE5C
:1032A000032209490948FFF701FE0422064970314B
:1032B0000748FFF7FBFD10BDC0010020004C004097
:1032C000004400400014014010030020004800406A
:1032D00000380140002000BF3BE0FF210B3141439B
:1032E0001D4A89188031C978012930D1FF210B315D
:1032F00041438918FF3101310989002911DDFF217E
:103300000B3141438918FF3101310989491E8AB2C5
:10331000FF210B314143104BC918FF3101310A81A4
:1033200015E00022FF210B3141430B4BC9188031BE
:10333000CA70FF210B314143C918FF3101310A81A5
:103340000122FF210B314143C91880318A70411C91
:10335000C8B20528C1DB7047F0090020F8B5064661
:103360000C4615460027284600F0F4F80746002FC3
:103370001ED06078F021084030436070681EC1B2F2
:103380002046FFF7B2F961192039C8772A4621464D
:103390003846FCF7BFFE29463846FFF757F905497E
:1033A000054A1278885C5A231E220121FEF7C2FECC
:1033B000F8BD0000D83500082000002010B50446F4
:1033C0002068C069102108400009002816D010208C
:1033D000216808620A49206888420FD110202168BC
:1033E00008622046FEF75AFA0021C9435A200153C9
:1033F0005820025B2046616DFEF7BAFD10BD00004B
:1034000000500040704730B47446641E2578641C38
:10341000AB4204D3635D5B00E31830BC18471D4624
:10342000F8E7000010B5002819DB1A4A03231B0235
:10343000D21883089B00D2588307DC0EFF23A340D9
:103440009A438B071B0E8407E40EA3401A43114BCB
:10345000032424021B198408A4001A5118E00E4A00
:1034600003071B0F083B9B089B00D2588307DC0E09
:10347000FF23A3409A438B071B0E8407E40EA3404F
:103480001A43054B0407240F083CA408A4001A5152
:1034900010BD000000E100E01CED00E000487047B6
:1034A0003000002002E008C8121F08C1002AFAD12B
:1034B00070477047002001E001C1121F002AFBD1B4
:1034C0007047000010B5002823D0124B0022001FC7
:1034D000196803E0814203D80A4649680029F9D1F6
:1034E000002A0AD01368841A9C4204D10068181874
:1034F0001060104602E0506000E01860002907D01C
:1035000002680B1A934203D10B68D2180260496813
:10351000416010BD28000020FDF73EFAFFF7F8F8E3
:10352000FCF7F6FEFFF758FDFFF7A8FEFFF76AFF6E
:10353000FFF78EF9FFF74EF87D23DB001E22FF21F7
:103540002020FEF7F7FD03E0FFF78EFDFFF734FACA
:10355000FAE70000F0B50B30C108C900144F00268F
:10356000144A0FE003688B420BD38B4205D95C1AD7
:103570004318456830C3083B00E04368136002C04D
:1035800004E0021D10680028ECD13046002803D169
:103590003868002801D00020F0BD064A06481060B7
:1035A000064A121AD208D20044C001203860D7E778
:1035B0002C0000202800002044190020401B00207F
:1035C00000000000000000000102030406070809D3
:1035D0000000000001020304010204081000004082
:1035E00040404040404040404141414141404040D6
:1035F0004040404040404040404040404040400506
:10360000020202020202020202020202020202207C
:10361000202020202020202020020202020202027C
:10362000909090909090101010101010101010109A
:1036300010101010101010101010020202020202DE
:1036400088888888888808080808080808080808FA
:1036500008080808080808080808020202024000D2
:10366000DF35000884360008000000203400000028
:10367000A4340008B8360008340000200C1F0000F5
:10368000B434000800127A000000000000000000BE
:10369000000000000000000000000000000000002A
:1036A000000000000000000000000000000000001A
:0836B000000000000000000012
:04000005080000B936
:00000001FF
