:020000040800F2
:10000000082F0020CD000008F53B000889310008CA
:1000100000000000000000000000000000000000E0
:10002000000000000000000000000000553F000834
:100030000000000000000000F73B0008573F0008E8
:10004000DF00000800000000DF000008DF000008FB
:10005000DF000008DF000008DF000008DF00000804
:1000600000000000AD0A0008B10A0008DF00000827
:10007000DF000008DF000008DF00000800000000CB
:100080002D40000861400008DF0000081D40000806
:10009000DF000008DF000008DF000008DF000008C4
:1000A000DF000008DF000008DF0000083548000816
:1000B000DF0000085D4900080348854600F06AFC3F
:1000C00000480047D15E0008082F00200448804700
:1000D00004480047FEE7FEE7FEE7FEE7FEE7FEE72F
:1000E000A93F0008B900000830B50B4601460020C2
:1000F0002022012409E00D46D5409D4205D31D462E
:100100009540491B2546954040191546521E002D25
:10011000F1DC30BD10B5202A04DB0846203AD0407F
:10012000002110BD0B46D340D0402024A21A91409C
:100130000843194610BDD2B201E00270401C491EAE
:10014000FBD270470022F6E710B513460A46044674
:100150001946FFF7F0FF204610BD30B505462A4688
:100160000B4610781C78521C5B1C002801D0A04262
:10017000F7D0002C03D0002802D06D1CEFE72846F2
:1001800030BD421C0178401C0029FBD1801A704709
:10019000F7B582B00F460026029C05F021FA0090C8
:1001A000006801902578641C002D05D000F0C6FA87
:1001B0000068405DC007F5D12B2D02D02D2D1CD03D
:1001C000641E00980021016039462046049A00F020
:1001D000B9FA0146002F04D03868A04201D1029834
:1001E00038600098006802280BD00098019A0260DD
:1001F000700506D5484205B0F0BD012080020643D7
:10020000DFE70846F7E7024670B54A40D30FDB0741
:1002100040002DD04A002AD0010E140E0002120216
:100220000919400A520A8418E50104465443000A99
:10023000120A2E045043A4194219200CC543AA18CF
:10024000120C0125AD03521C521912047F392404EB
:1002500000D0521C104301D44000491EC2B20C060B
:10026000C0092018401C4008802A02D003E000206A
:1002700070BD40084000002900DA0020184370BD1E
:10028000F0B507460846584087B0C00F04904800B4
:100290000E46590040084908BC1A884105D2384624
:1002A00031461E4617460B4602465800400810438A
:1002B0004CD0300D039040055900400D490D05907C
:1002C000401A0290402872DA18030121000B090538
:1002D0000843019004980092002805D001995242E9
:1002E0000020884100920190029840210A1A019949
:1002F000009800F0FFF905460C466B4607CB00F06E
:1003000009FAC0197141039A0E0D0023D717564000
:100310001A467A40164344D0049A002A2DD0029AF5
:10032000012A039A15DC1205C01A914101263605EF
:10033000001C7141D20F059ED207009301920296D4
:100340002A46234600F09FFA07B0F0BD38463146F2
:10035000FAE71605224A0F46B218C01AB741012122
:100360000905001C4F4100187F41114618187941BA
:10037000E20F10436D19644113E0E2076D08154365
:100380006408C2071443039A01261205C01A91415A
:100390003605001C7141CE07400830434908C0189B
:1003A00051412A46234600F061FACDE7FFE7049861
:1003B00001224000C117121A00238B4104983146D4
:1003C000C417381AA141EEE730B40124E4076340B2
:1003D00030BC55E730B40124E407614030BC4FE73E
:1003E0000000E0FFF0B51FB488B00B990998002415
:1003F00048400999C00F490049080991C0070B9965
:100400000090490049080B9109990898A6460843AD
:100410001CD00B990A98084318D009980124400071
:10042000420D4800410D099824050003000B2043AC
:1004300009900B980003000B20430B9050181C49A7
:100440004018002201901446104605E000200146A5
:100450000DB0F0BD032801DA034600E003239C46FB
:10046000C11A0AAE0AE05F0008ADED5B4F00F75B12
:100470007D430027AA187C41491C5B1E6145F2DDC3
:10048000410004AB5A522104120C0A43240C401CB4
:100490000828DFDB019802900099704601910090D6
:1004A000059B049A0799069800F0EDF9D0E7000043
:1004B0000DFCFFFFF0B50C465C4085B0E40FE4078F
:1004C00003944C00002664085900944649080246EB
:1004D0000296224321D062460A431ED06200570D85
:1004E0004A000E032303550D012402462C4924051E
:1004F000781B1B0B360B40182343264361460090A4
:100500001C46501AB44103D30098401C009002E0EE
:10051000921800985B41002803DA0020014605B0DC
:10052000F0BD0020012109050746864611E064461A
:100530001D46141BB54106D36546521BB341744694
:1005400007430C43A646CD074008490828439218A4
:100550005B4105460D43EAD11046184313D060466F
:10056000194650407140084306D06046101AB34106
:1005700006D20122002306E000220123DB0702E06D
:100580000122D2435310009874460105381C614182
:10059000029C039D0019694100F068F9BFE7000063
:1005A000FD03000010B500229623114600F025F946
:1005B00010BD00000EB505490291002100910A46C8
:1005C0000B46019100F05FF903B000BD3304000059
:1005D000410040020122400AD205090E80187F29FD
:1005E00001DA00207047962903DC9622511AC84090
:1005F0007047963988407047C20FD20740004008C4
:100600000BD0C10D0723DB01C91840020905400AC0
:100610001143C2084007114370470020014670474C
:1006200010B5002904DB0124E40740428C41214637
:10063000002B04DB1C460123DB075242A3418B4203
:1006400000D1824210BD0000CB0FDB07490010B57E
:10065000490802460A4307D00A0D07240903E401AA
:10066000090B121B002A01DC002010BDC900440F39
:100670000C43C100E018D205801800F0B6F810BD98
:100680000122D207002800DB101A002900DB511AD2
:1006900088427047F0B51FB40646002082B0054678
:1006A0004024019100901BE0019922460F463046FC
:1006B000FFF730FD049A059B801A994110D310462C
:1006C0001946224600F016F8361A8F410197224645
:1006D00001200021009F00F00DF838184D410090D6
:1006E0002046641E0028DFDC019B00982946324624
:1006F00007B0F0BD10B5202A04DB0146203A914036
:10070000002010BD914020239C1A0346E34019436A
:10071000904010BD10B5202A06DBCB170846203AC2
:100720001041C1170B4306E00B461341D040202473
:10073000A21A91400843194610BD000000487047B6
:10074000B4600008F7B582B0029C00272078641CD2
:1007500015460197302802D0002D15D015E02078DD
:100760000127641C782804D0582802D0002D09D015
:100770000BE0002D01D0102D07D100271025207887
:10078000641C02E0082500E00A250026009610E01F
:100790000099012769430818020C294680B2714369
:1007A00000908E183804864201D3012001902078F1
:1007B000641C294600F000F90028E9DA03980028B3
:1007C00005D0002F01D0641E00E0029C0460019857
:1007D000002806D004F004FF02210160C81E05B005
:1007E000F0BD009930040843F9E7002904DA401C01
:1007F000490001D140084000704770B40024050C46
:1008000005D11024000402D1002921D01124050EA5
:1008100001D100020834050F01D10001241D850F0C
:1008200001D18000A41C002801DB4000641C0029C9
:1008300008D020252E1B0D46F540A14000D00121F7
:100840002943084301061B1B000ADB1D02D50020BB
:1008500070BC7047DB05181880180029F8DA401CB6
:100860004900F5D170BC40084000704710B5002B1E
:1008700008DA0024401C614192185B411A4301D1FF
:100880004008400010BDF0B51FB482B005460C0012
:1008900003D0084604F042FE02E004F03FFE2030A0
:1008A0000246009021462846FFF724FF049B059A44
:1008B00004460F4618431143084314D0184610430A
:1008C0001BD0009840210A1A18460599FFF722FC10
:1008D00005460E46009A05990498FFF70BFF08435A
:1008E00005D0012004E02046394607B0F0BD0020C5
:1008F000C11705430E432C43374300990E986305F7
:10090000401A7905E40A00220C43FD0A0A3002D598
:1009100000200146E9E70105101969410C9C0D9D75
:1009200000196941FFF7A2FFDFE700004A00090351
:100930000123090B1B0519430A4B10B5520D9A42AE
:1009400002DA0020014610BD064B34339A4203DC24
:100950009A1AFFF7DFFB10BD034BD218FFF7CAFE50
:1009600010BD0000FF030000CDFBFFFF10B5002904
:1009700004DB0124E40740428C412146002B04DBC8
:100980001C460123DB075242A341994200D1904209
:1009900010BD0000064C0125064E05E0E36807CCBB
:1009A0002B430C3C98471034B442F7D3FFF788FB35
:1009B00044610008646100083A2800D230382023DE
:1009C00002469A43412A01D310463738884201D360
:1009D0000020C0437047000000B587B000BF30481A
:1009E00040690121490408432D494861084640698E
:1009F000012149040840019000BF00BF00BF284802
:100A00004069490008432649486108464069012178
:100A100089040840019000BF00BF00BF2048406922
:100A2000490008431E494861084640690121C9043C
:100A30000840019000BF00BFFE20029001200390FB
:100A4000002004900320059002A90920C00600F0B0
:100A5000FFFA0120029003900020049003200590EB
:100A600002A9104800F0F4FA01204003029001208E
:100A70000390002004900320059002A90A4800F08A
:100A8000E7FA0021FF2002F057FA002003900490BB
:100A9000E020029002A9034800F0DAFA07B000BD96
:100AA00000100240000400480008004870470000A1
:100AB00010B50249486E00F06FF910BDC801002062
:100AC00010B50446054A2168881A1421FFF70CFB6B
:100AD0008000206401480838E06310BD080002402F
:100AE00030B50124056CAC40C56B6C600468636074
:100AF0004468102C04D10468A2600468E16003E03B
:100B00000468A1600468E26030BD000010B50021F7
:100B100018484171017100201649243948627D232B
:100B2000DB000A22FF21802002F000F91248007841
:100B3000022804D16D21682003F0D5FB19E00E488E
:100B40000078032804D17D21682003F0CCFB10E05D
:100B500009480078042804D10721682003F0C3FB6A
:100B600007E005480078072803D17F21682003F0BB
:100B7000BAFB10BDEC2900208000002008B5002140
:100B80001248417101710020104930390863104842
:100B90000078401C0E490870084600780D49097815
:100BA000884202DB00200A4908700B48084A127884
:100BB000815C682003F097FB0848002301227D2117
:100BC000C9000090014803F0E9FB08BDF8290020A6
:100BD0007C0000207E0000207C2A00207D0B000885
:100BE000F0B58BB0204800F05DF81F48001D00F004
:100BF00079F81D48083000F065F81B4908681B4962
:100C0000FFF701FB0546184881682846FFF7FBFA05
:100C100004461649FFF7F7FA1349C860C868FFF79A
:100C2000EBFC04460D4610498868FFF7E5FC0646D4
:100C30000F460D494868FFF7DFFC099108900A4903
:100C40000868FFF7D9FC039702960595049407916D
:100C50000690099908980191009005A0079B069AB3
:100C600004F04CFC0BB0F0BDA42A00206F12833AB4
:100C7000566275733A256620205368756E74566FF8
:100C8000746167653A2566205368756E74437572A2
:100C900072656E743A256620506F7765723A2566E4
:100CA000200A000070B50446802002F074FC06465D
:100CB000FFF778FC05460249FFF7A5FA206070BDF2
:100CC0000000A03F70B50446802002F04FFC0646AD
:100CD000FFF768FC05467F21C905FFF794FA2060FD
:100CE00070BD0000FEB50446802002F02AFC0746D5
:100CF000FFF760FC0022054B01910090FFF772FBAB
:100D00000546FFF7A1FC2060FEBD00000000044086
:100D10000146086800680E2290430A68106008685F
:100D20000068400840000A68106001200A6C90408A
:100D3000CA6B506001222120425400BF00222020B3
:100D4000425400BF0020704710B50446002C01D16A
:100D5000012010BD2068006840084000216808603C
:100D60000020216808602168486021688860216847
:100D7000C8602046FFF7A4FE0120216C8840E16B8B
:100D800048600020A06300212120015500BF2020E1
:100D9000015500BF0020DCE770B50446E06B056834
:100DA000206806680420216C8840284000281BD059
:100DB00004203040002817D0206800682021084017
:100DC000002805D120680068042188432168086054
:100DD0000420216C8840E16B4860E06A002852D012
:100DE0002046E16A88474EE00220216C8840284076
:100DF000002823D00220304000281FD0206800683F
:100E000020210840002808D1206800680A21884372
:100E1000216808600121212001550220216C8840B1
:100E2000E16B486000BF00212020015500BFA06A8F
:100E3000002828D02046A16A884724E00820216C99
:100E40008840284000281ED00820304000281AD0B2
:100E5000206800680E218843216808600120216C09
:100E60008840E16B48600120A063012121200155E9
:100E700000BF00212020015500BF206B002802D0B8
:100E80002046216B884770BDF8B504460D461646CE
:100E90001F460020009000BF2020005D012801D1E6
:100EA0000220F8BD01212020015500BF2120005D56
:100EB00001282DD10221212001550020A0632068A6
:100EC000006840084000216808603B4632462946D9
:100ED0002046FFF705FEE06A002806D0206800687B
:100EE0000E210843216808600BE0206800680A2191
:100EF000084321680860206800680421884321684D
:100F0000086020680068012108432168086006E045
:100F100000BF00212020015500BF02200090009852
:100F2000BFE731B500F09CF90546009C601C002825
:100F300000D0641C00BF00F093F9401BA042FAD31C
:100F400038BD0000F0B502460B4600200021002409
:100F50006FE0012585401D402946002968D01568AD
:100F600047000326BE40B5431560C508AE001546D0
:100F70002035AD594607F70E0F26BE40B543C608CB
:100F8000B60017462037BD51956847000326BE407E
:100F9000B5439560556801268640B5435560D568D0
:100FA00047000326BE40B543D560244D8608B600F1
:100FB000AC5985072E0F0F25B5402C400925ED06AD
:100FC000AA4201D100250FE01D4DAA4201D1012501
:100FD0000AE01C4DAA4201D1022505E01A4DAA42A1
:100FE00001D1032500E005258607360FB540A5424F
:100FF0001ED185072E0F0F25B5402C460F4D8608B4
:10100000B600AD59A5430D4E8708BF00F5510F4DF1
:101010002D688D430D4E356035466D688D43756086
:101020003546AD688D43B5603546ED688D43F56056
:10103000401C1D46C540002D8BD1F0BD080001406D
:101040000004004800080048000C0048000401406B
:1010500078B50346002200240020DEE001269640F9
:101060000D6835402C46002C7ED04D68022D02D0F4
:101070004D68122D15D1D508AE001D462035A85952
:101080005507EE0E0F25B5400646AE4330465607CF
:10109000F60E0D69B5402843D508AD001E46203632
:1010A0007051186856000325B5400646AE433046D9
:1010B0000D79AD07AD0F5600B540284318604D6857
:1010C000012D08D04D68022D05D04D68112D02D09C
:1010D0004D68122D18D1986856000325B540064674
:1010E000AE4330465600CD68B540284398605868F6
:1010F000012595400646AE43304610264D683540E2
:101100002D09954028435860D86856000325B540FE
:101110000646AE43304656008D68B5402843D86039
:10112000012636074D683540B54275D100BF3E4DAA
:10113000AD69012635433C4EB5613546AD69ED07D5
:10114000ED0F009500BF00BF384D9608B600A859B6
:1011500095072E0F0F25B5400646AE4330460925AC
:10116000ED06AB4203D100E056E000250FE0304D24
:10117000AB4201D101250AE02E4DAB4201D102253F
:1011800005E02D4DAB4201D1032500E00525960772
:10119000360FB5402843254D9608B600A851274D77
:1011A00028680546A5432846012636044D68354083
:1011B000B54202D1054625432846204D286068687F
:1011C0000546A5432846012676044D683540B542BC
:1011D00002D1054625432846184D6860A868054693
:1011E000A5432846012636054D683540B54202D153
:1011F000054625432846114DA860E8680546A543E5
:101200002846012676054D683540B54202D105468F
:1012100025432846094DE860521C0D68D540002D35
:1012200000D01BE778BD000000100240080001401C
:101230000004004800080048000C00480004014079
:10124000024613690B40002B01D0012000E0002072
:101250007047002A01D0816100E081627047000080
:1012600001480068704700000400002010B50446E3
:10127000002C01D1012010BD4120005D002805D1C6
:10128000002140200155204600F0BAFA24214120D7
:1012900001552068006840084000216808600F215F
:1012A0000906606888432168086120688068012118
:1012B000C903884321688860E068012806D10121BC
:1012C000C903A06808432168886005E021218902DC
:1012D000A068084321688860E068022802D1800283
:1012E00021684860206840681449084321684860C4
:1012F0002068C0680121C90388432168C86061690A
:1013000020690843A169090208432168C860216A6D
:10131000E0690843216808602068006801210843EB
:1013200021680860002060642021412001550020D0
:10133000206300214220015500209CE7008000022C
:10134000FFB581B0044616461F4600254120005DCA
:1013500020286ED100BF4020005D012802D102206C
:1013600005B0F0BD01214020015500BFFFF778FF17
:10137000054619230122D1032046009502F00EF8FC
:10138000002801D00320EBE7222141200155102144
:101390004220015500206064666267856063608D4D
:1013A000FF280CD9FF202085092080020090208D85
:1013B000C2B20B052046029901F0D8FF0CE0608D07
:1013C0002085092080020090208DC2B201235B0697
:1013D0002046029901F0CAFF48E02A4620460A99B1
:1013E00002F006F8002806D0606C042801D1012024
:1013F000B6E70320B4E72068406AC1B2626A501CB5
:1014000060621170208D401E2085608D401E6085B9
:10141000208D00282AD1608D002827D00095002239
:10142000802120460A9B01F0B9FF002802D003204A
:1014300096E741E0608DFF280CD9FF202085002031
:101440000090208DC2B201231B062046029901F0B4
:101450008DFF0BE0608D208500200090208DC2B2B2
:1014600001235B062046029901F080FF608D002871
:10147000B3D12A4620460A9902F006F8002806D081
:10148000606C042801D101206AE7032068E720206E
:101490002168C861206840680849084021684860A0
:1014A00020214120015500214220015500BF40204C
:1014B000015500BF002053E7022051E700E800FE7D
:1014C000FFB581B0044616461F4600254120005D49
:1014D00020287CD100BF4020005D012802D10220DD
:1014E00005B0F0BD01214020015500BFFFF7B8FE57
:1014F000054619230122D1032046009501F04EFF35
:10150000002801D00320EBE72121412001551021C3
:101510004220015500206064666267856063608DCB
:10152000FF280BD9FF20208548020090208DC2B2F1
:101530000B052046029901F019FF0CE0608D208513
:10154000012040030090208DC2B201235B0620469B
:10155000029901F00BFF47E02A4620460A9901F064
:10156000C0FF002806D0606C042801D10120B7E735
:101570000320B5E7616A481C6062087821688862C8
:10158000608D401E6085208D401E2085208D0028A6
:101590002AD1608D002827D0009500228021204686
:1015A0000A9B01F0FBFE002801D0032098E7608D24
:1015B000FF280DD9FF20208500200090208DC2B289
:1015C00001231B062046029901F0D0FE0CE031E019
:1015D000608D208500200090208DC2B201235B0623
:1015E0002046029901F0C2FE608D0028B4D12A463F
:1015F00020460A9901F048FF002806D0606C0428B4
:1016000001D101206CE703206AE720202168C8612E
:10161000206840680849084021684860202141202E
:10162000015500214220015500BF4020015500BF57
:10163000002055E7022053E700E800FEFFB583B025
:1016400004460C9F0E9E00254120005D202870D18D
:10165000002F02D00D98002802D1012007B0F0BD64
:1016600000BF4020005D012801D10220F6E70121E2
:101670004020015500BFFFF7F3FD05461923012265
:10168000D1032046009501F089FE002801D00320F7
:10169000E4E721214120015540214220015500204D
:1016A000606467620D986085002060630096019514
:1016B000204604A90EC901F00FFE002810D0606C6E
:1016C000042806D100BF00214020015500BF0120A1
:1016D000C4E700BF00214020015500BF0320BDE743
:1016E000608DFF280CD9FF20208500200090208DE0
:1016F000C2B201231B062046049901F037FE0BE01D
:10170000608D208500200090208DC2B201235B06F1
:101710002046049901F02AFE00BF2A4631462046A1
:1017200001F0DFFE002807D0606C042802D1012000
:1017300094E760E0032091E7616A481C60620878E2
:1017400021688862608D401E6085208D401E208546
:10175000208D002829D1608D002826D03346002214
:1017600080212046009501F019FE002801D00320B9
:1017700074E7608DFF280CD9FF20208500200090A1
:10178000208DC2B201231B062046049901F0EEFD14
:101790000BE0608D208500200090208DC2B20123D7
:1017A0005B062046049901F0E1FD608D0028B4D16C
:1017B0002A463146204601F067FE002806D0606CBC
:1017C000042801D1012049E7032047E720202168B0
:1017D000C8612068406809490840216848602021A4
:1017E0004120015500214220015500BF40200155F4
:1017F00000BF002032E7022030E7000000E800FED2
:1018000010B58AB00446202001901020049001A851
:1018100000F0EEF83349206888422DD100BF3248ED
:1018200040690121890408432F49486108464069FD
:10183000012189040840009000BF00BFC02005902E
:1018400012200690012007900320089001200990A3
:1018500005A92648FFF7FCFB00BF2348C06901210A
:10186000490508432049C8610846C0690121490566
:101870000840009000BF33E01D49206888422FD106
:1018800000BF1948406901214904084316494861CD
:1018900008464069012149040840009000BF00BF8C
:1018A0000320C0020590122006900120079003201B
:1018B00008900520099005A90920C006FFF7C8FB7C
:1018C00000BF0948C0690121890508430649C8616C
:1018D0000846C069012189050840009000BF00BF8B
:1018E0000AB010BD0054004000100240000400483F
:1018F0000058004002480068401C014908607047D9
:101900000400002010B5064800681021084304496F
:101910000860032000F006F800F017F8002010BD62
:101920000020024070B5044600F0F0F906467D2123
:10193000C900FEF7D9FB054600F00AFD002221464A
:10194000501E00F02FF8002070BD7047014600299E
:1019500015DBCB06DB0E01229A400A4B1A6000BF52
:1019600000BF00BFBFF34F8F00BF00BF00BF00BF6D
:1019700000BF00BFBFF36F8F00BF00BF00BF00BF3D
:101980007047000080E100E00146002905DBCB063E
:10199000DB0E01229A40024B1A6000BF7047000024
:1019A00000E100E070B504460D4616462946204683
:1019B00003F0DAFD70BD000000BF00BF00BF00BF34
:1019C00000BFBFF34F8F00BF00BF00BF06480749ED
:1019D000C86000BF00BF00BFBFF34F8F00BF00BF94
:1019E00000BF00BF00BFFDE70400FA0500ED00E006
:1019F000F8B50446002600250121090420680840A6
:101A000088427AD100274B48C06909030840002862
:101A10000DD100BF4748C06908434649C861084620
:101A2000C06909040840009000BF00BF0127424878
:101A30000068FF2101310840002816D13E480068A7
:101A400008433D490860FFF70BFC064606E0FFF738
:101A500007FC801B642801D90320F8BD36480068C4
:101A6000FF21013108400028F1D03248006A0321EB
:101A7000090208400546002D2DD060680840A842A4
:101A800029D02C48006A884305462A48006A01216B
:101A900009040843274908620846006A012109042D
:101AA00088432449086208460562E807C00F0028F9
:101AB00011D0FFF7D5FB064607E0FFF7D1FB801BEF
:101AC0001E49884201D90320C7E71A48006A02214B
:101AD00008400028F1D01748006A03210902884312
:101AE0006168084313490862012F05D10846C0699F
:101AF000090488430F49C86100BF2078C007C00FA0
:101B0000002807D00B48006B80088000A1680843BC
:101B100008490863202120680840202807D105488B
:101B2000006B10218843E1680843024908630020E4
:101B300093E700000010024000700040881300008E
:101B400070B504460D4600265D480068C007C00F0A
:101B5000A8420ED25A48006840084000284358491D
:101B6000086008460068C007C00FA84201D00120E5
:101B700070BD022120680840022807D15148406802
:101B8000F0218843A16808434E4948602078C00787
:101B9000C00F00285FD06068012808D1494800685C
:101BA000012149040840002815D10120E0E76068C0
:101BB000022808D14348006801214906084000284E
:101BC00009D10120D4E73F480068022108400028DD
:101BD00001D10120CCE73B48406880088000616863
:101BE000084338494860FFF73BFB06466068012818
:101BF0000FD107E0FFF734FB801B3349884201D93E
:101C00000320B5E72F4840680C2108400428F1D193
:101C100021E0606802280FD107E0FFF721FB801B5D
:101C20002949884201D90320A2E7264840680C21AF
:101C300008400828F1D10EE007E0FFF711FB801BF8
:101C40002149884201D9032092E71E4840680C21AF
:101C500008400028F1D11A480068C007C00FA84208
:101C60000ED917480068400840002843144908600E
:101C700008460068C007C00FA84201D0012077E7DE
:101C8000042120680840042808D10E484068072134
:101C900009028843E16808430A49486000F04EF8A9
:101CA00008494968F02211400909084A515CC840B6
:101CB000074908600320FFF735FE002058E70000C1
:101CC0000020024000100240881300001860000845
:101CD00000000020072202600A4A52689207920F11
:101CE0004260084A5268F0231A408260054A5268EE
:101CF00007231B021A40C260034A1268D207D20FA0
:101D00000A6070470010024000200240014800684D
:101D1000704700000000002000B5FFF7F7FF0549FD
:101D20004968072212021140090A034A515CC8405F
:101D300000BD00000010024028600008F0B589B026
:101D400025A001460EC9C06805AC0EC4089026A0A7
:101D500001460EC9C06801AC0EC4049000240026E0
:101D60000027002500200090234844680C202040D4
:101D700000282AD0042802D0082825D102E01F48D4
:101D8000009025E00F2080042040800C05A90D5C08
:101D90001948C06A0007000F01A90E5C0320C003A8
:101DA000204001210904884206D131461348FEF73C
:101DB0009BF96843074605E031461048FEF794F961
:101DC00068430746009703E000BF0C48009000BF3F
:101DD00000BF009809B0F0BD02030405060708091A
:101DE0000A0B0C0D0E0F1010010203040506070864
:101DF000090A0B0C0D0E0F100010024000127A00A1
:101E0000F8B5044600252078C007C00F002872D01E
:101E1000FA4840680C21084004280CD0F748406874
:101E20000840082813D1F5484068490308400121BB
:101E3000090488420BD1F148006801214904084097
:101E400000286BD06068002868D10120F8BD00BF71
:101E50006068012807D1E9480068012109040843A6
:101E6000E649086031E0606800280ED1E348006868
:101E7000012109048843E1490860084600680121FE
:101E800089048843DD4908601FE0606805280ED199
:101E9000DA480068012189040843D84908600846E7
:101EA0000068012109040843D44908600DE0D348C3
:101EB0000068012109048843D04908600846006889
:101EC000012189048843CD49086000BF606800286B
:101ED00012D0FFF7C5F9054606E0FFF7C1F9401B30
:101EE000642801D90320B1E7C448006801214904EE
:101EF00008400028F1D011E0FFF7B2F9054606E0EE
:101F0000FFF7AEF9401B642801D903209EE7BB48C8
:101F100000680121490408400028F1D1022120680D
:101F20000840022862D1B54840680C2108400028CA
:101F30000CD0B2484068084008281CD1AF4840681F
:101F4000490308400121C903884214D1AB48006805
:101F500002210840002804D0E068012801D00120B7
:101F600074E7A6480068F82188432169C90008433E
:101F7000A24908603AE0E068002820D09F48006845
:101F8000012108439D490860FFF76AF9054606E00C
:101F9000FFF766F9401B022801D9032056E797484E
:101FA0000068022108400028F2D094480068F82117
:101FB00088432169C90008439049086016E08F48AA
:101FC0000068400840008D490860FFF749F9054660
:101FD00006E0FFF745F9401B022801D9032035E749
:101FE00086480068022108400028F2D108212068B4
:101FF0000840082831D1E069002817D07F48406A9E
:10200000012108437D494862FFF72AF9054606E0A9
:10201000FFF726F9401B022801D9032016E777486D
:10202000406A022108400028F2D016E07348406A56
:102030004008400071494862FFF712F9054606E082
:10204000FFF70EF9401B022801D90320FEE66B487A
:10205000406A022108400028F2D10421206808408B
:10206000042871D100266548C06989060840002807
:102070000DD100BF6148C06908436049C861084686
:10208000C06909040840009000BF00BF01265C48F9
:102090000068FF2101310840002816D15848006827
:1020A000084357490860FFF7DBF8054606E0FFF7ED
:1020B000D7F8401B642801D90320C7E650480068C0
:1020C000FF21013108400028F1D000BFA06801289D
:1020D00006D14A48006A01210843484908622BE0BA
:1020E000A06800280CD14548006A400840004349D8
:1020F00008620846006A04218843404908621BE0E0
:10210000A06805280CD13D48006A042108433B49DA
:1021100008620846006A01210843384908620BE05A
:102120003648006A40084000344908620846006AA0
:10213000042188433149086200BFA068002813D0F9
:10214000FFF78EF8054608E029E0FFF789F8401B05
:102150002C49884201D9032078E62848006A0221E8
:1021600008400028F1D011E0FFF77AF8054607E0B3
:10217000FFF776F8401B2349884201D9032065E622
:102180001E48006A022108400028F1D1012E05D125
:102190001A48C069310788431849C86100BF102137
:1021A0002068084010285FD1606901282CD11348AD
:1021B000406B04210843114948630846406B0121E4
:1021C00008430E494863FFF74BF8054606E0FFF762
:1021D00047F8401B022801D9032037E60748406B27
:1021E000022108400028F2D00448406BF8218843BF
:1021F000A169C90008430149486335E00010024065
:1022000000700040881300006069401D00280FD155
:102210004E48406B042188434C4948630846406B54
:10222000F8218843A169C9000843484948631BE075
:102230004648406B04210843444948630846406BC4
:10224000400840004863FFF70BF8054606E0FFF73B
:1022500007F8401B022801D90320F7E53B48406BF3
:10226000022108400028F2D1206A00286CD03748AB
:1022700040680C210840082864D0206A022847D111
:102280003248006801210906884330490860FEF79A
:10229000E7FF054606E0FEF7E3FF401B022801D9F1
:1022A0000320D3E529480068012149060840002899
:1022B000F1D100BF2548C06A00090001E16A084366
:1022C0002249C862616AA06A0843204949687B22A2
:1022D000D203914308431D49486000BF0846006887
:1022E00001210906084319490860FEF7B9FF0546B0
:1022F00006E0FEF7B5FF401B022801D90320A5E543
:10230000124800680121490608400028F1D01BE06E
:102310000E4800680121090688430C490860FEF751
:102320009FFF054606E0FEF79BFF401B022801D9F0
:1023300003208BE505480068012149060840002874
:10234000F1D101E0012081E500207FE5001002408D
:1023500070B504462546681E0949884201D9012006
:102360000CE0681E074948610321081F03F0FCF8D0
:1023700000200449886107200861002070BD00002A
:10238000FFFFFF0000E000E07047704710B5044613
:10239000002C01D1012010BD3D20005D002805D199
:1023A00000213C200155204600F00CF802213D2080
:1023B0000155211D206801F0D7FE01213D20015566
:1023C0000020E8E738B504461A492068884216D14B
:1023D00000BF1948C069022108431749C86108466F
:1023E000C06902210840009000BF00BF0022012107
:1023F0001020FFF7D7FA1020FFF7C6FA19E00F49AF
:102400002068884215D100BF0B48C06910210843DD
:102410000949C8610846C06910210840009000BF02
:1024200000BF002201211120FFF7BCFA1120FFF7A5
:10243000ABFA38BD0004004000100240001000401C
:1024400001460868C068012210430A68D060086825
:102450000068012210430A681060002070470000E5
:1024600070B5064600250021124800F014F981B22B
:1024700011480468601C104A106060000F4A115235
:102480000D480068022813D310460088691E081AF8
:10249000114649884018401C85B229460848006802
:1024A000FDF722FE0749086008460068C000086082
:1024B00070BD000008010020140000200C00002066
:1024C000000000201000002010B5044620680069BC
:1024D00002210840400800281CD02068C06808403D
:1024E0004008002816D0481F216808610120207785
:1024F000206880698007800F002803D02046FFF7FE
:10250000AFFF05E0204600F0C3F8204600F0C1F818
:1025100000202077206800690421084080080028F6
:102520001DD02068C06808408008002817D0C84324
:102530002168086102202077206880690321090250
:102540000840002803D02046FFF78AFF05E0204618
:1025500000F09EF8204600F09CF8002020772068CC
:10256000006908210840C00800281CD02068C06805
:102570000840C008002816D0C8432168086104201C
:1025800020772068C0698007800F002803D020468C
:10259000FFF766FF05E0204600F07AF8204600F0DD
:1025A00078F8002020772068006910210840000991
:1025B00000281DD02068C06808400009002817D0F6
:1025C000C84321680861082020772068C06903217A
:1025D00009020840002803D02046FFF741FF05E02C
:1025E000204600F055F8204600F053F800202077F0
:1025F00020680069C007C00F0121484048400028FA
:102600000CD02068C068084048404840002805D0E9
:10261000C81E21680861204600F03CF82068006967
:1026200080210840C00900280BD02068C0680840FD
:10263000C009002805D0C843216808612046FFF77B
:10264000A3FE2068006940210840800900280BD0C3
:102650002068C06808408009002805D0C843216868
:102660000861204600F043F82068006920210840F6
:10267000400900280BD02068C068084040090028A5
:1026800005D0C843216808612046FFF77EFE10BDD3
:1026900070477047704710B50246002300BF3C20CA
:1026A000805C012801D1022010BD01243C2084540B
:1026B00000BF002906D0042907D0082908D00C291A
:1026C0000CD108E01068436B09E01068836B06E0EA
:1026D0001068C36B03E01068036C00E000BF00BF2C
:1026E00000BF00243C20845400BF1846DCE770473C
:1026F000FEB504462068C5692068066800270020EA
:1027000001902020284000281DD0202030400028A3
:1027100019D02068808C00903B49498800983B4A3A
:10272000505439484088401C80B2374948800121C4
:102730000903884202D3002051184880FF20F53059
:1027400033490880FEBD2807000F01902068876884
:10275000019800284CD0F807C00F002804D1FF20B2
:1027600021303040002843D0E807C00F00280BD0AC
:10277000FF2001303040002806D001202168086287
:10278000E06E01210843E0660220284000280AD0BC
:10279000F807C00F002806D0022021680862E06E0A
:1027A00004210843E0660420284000280AD0F807E6
:1027B000C00F002806D0042021680862E06E0221C4
:1027C0000843E06608202840002811D0202030402F
:1027D000002803D1F807C00F002809D0082021687D
:1027E00008622068808C0090E06E08210843E06653
:1027F0002068C06910210840102802D1204602F04C
:102800003DFE00BF9EE700007429002074190020DF
:102810001800002010B504466920005D212813D15E
:10282000206880688021084000280DD020688068DA
:10283000884321688860206E002802D0206EFEF751
:1028400067FA204601F0A1FE6A20005D222813D11C
:10285000206880684021084000280DD020688068EA
:10286000884321688860606E002802D0606EFEF7A1
:102870004FFA204601F078FE002010BD10B5044646
:10288000002C01D1012010BD2421692001552068B0
:102890000068400840002168086000202168086046
:1028A0002168486021688860204600F04FF80020C9
:1028B000E0660021692001556A20015500BF6820AB
:1028C000015500BF0020DEE7704710B50446002C1C
:1028D00001D1012010BDA069002800D000E000BF98
:1028E0006920005D002805D100216820015520469F
:1028F00000F08EF824216920015520680068400806
:10290000400021680860204601F04AFE012800D1FD
:10291000E0E7606A002802D0204601F046FD20680A
:1029200040680121C90288432168486020688068A6
:1029300008218843216888602068006801210843D5
:1029400021680860204601F0A8FDC3E710B50446E1
:102950002B492068884228D12A48C0680121890370
:1029600008432849C8600846C06801218903884394
:102970002449C86049150920C006FEF7E3FA012181
:1029800089020920C006FEF7DDFA606E002802D039
:10299000606EFEF7D9F9206E002802D0206EFEF797
:1029A000D3F91B20FEF7D2FF28E0174920688842A0
:1029B00024D114480069012109050843114908611F
:1029C000084600690121090588430E49086108216C
:1029D0000E48FEF7B7FA10210C48FEF7B3FA606E06
:1029E000002802D0606EFEF7AFF9206E002802D0FA
:1029F000206EFEF7A9F91D20FEF7A8FF10BD00000C
:102A0000003801400010024000500040000400481F
:102A100010B586B004465149206888423BD100BFBA
:102A20004F4840690121890408434D4948610846DF
:102A30004069012189040840009000BF00BF00BF29
:102A40004748C069890008434549C8610846C069CC
:102A5000012109050840009000BF00BF00BF4048A9
:102A60004069012108433E49486108464069C00762
:102A7000C00F009000BF00BF1820019002200290FC
:102A800001200390032004900420059001A93548FB
:102A9000FEF7DEFA60E03449206888425CD100BF6E
:102AA0002F4840690121490408432D4948610846DF
:102AB0004069012149040840009000BF00BF00BFE9
:102AC0002748406908432649486108464069012172
:102AD00049040840009000BF00BF00BF2048406983
:102AE000012108431E49486108464069C007C00FDC
:102AF000009000BF00BF00BF084680690121890324
:102B00000843174988610846806901218903084004
:102B1000009000BF00BF48110190022002900120E8
:102B20000390032004900120059001A90920C0060C
:102B3000FEF78EFA0120800201900120059001A984
:102B40000920C006FEF784FA012211461B20FEF779
:102B500029FF1B20FEF718FF06B010BD00500040F3
:102B600000100240000400480038014070B50446DF
:102B70000D4616466A20005D202854D1002D01D054
:102B8000002E01D1012070BD01210903A0688842F7
:102B900008D12069002805D1E807C00F002801D01E
:102BA0000120F0E700BF6820005D012801D102206C
:102BB000E9E701216820015500BF656558200653EB
:102BC0000020E06622216A2001551848616E886263
:102BD0001748616EC8621748616E08630020616E15
:102BE00048632368194624313346626D606EFEF7F0
:102BF0004BF900BF00216820015500BF2068006824
:102C0000FF210131084321680860206880680121A4
:102C10000843216888602068806840210843216853
:102C200088600020AFE70220ADE700000F450008F4
:102C30005B450008B944000870477047FEB504467C
:102C40000D4616461F46002001906920005D202891
:102C50006AD1002D01D0002E01D10120FEBD01213D
:102C60000903A068884208D12069002805D1E80737
:102C7000C00F002801D00120F0E700BF6820005DF0
:102C8000012801D10220E9E701216820015500BF98
:102C90000020E066212169200155FEF7E1FA01904C
:102CA000502006535220065325E05220005B401E60
:102CB00081B2522001530097002280212046019BBF
:102CC00001F080FD002801D00320C7E7012109039E
:102CD000A06888420BD12069002808D10295029D86
:102CE0002888C005C00D21680885AD1C03E0287840
:102CF0006D1C216808855220005B0028D5DC0097F8
:102D0000002240212046019B01F05CFD002801D0FB
:102D10000320A3E720216920015500BF002168207E
:102D2000015500BF002099E7022097E7FFB581B069
:102D300005461646002D45D0002E43D004980028A5
:102D400040D0642E39DA0127EDB2284C2AE028461B
:102D50003840002823D02078022808DA3846244951
:102D6000097808402349097808432249087000205F
:102D700020700498A080A6700298607002980028C5
:102D800003D12078042108432070FEF769FAA0607F
:102D900020780221084320702846784005467806AE
:102DA000070E0C34002DD2D1134801230022114606
:102DB0000090124801F0F2FA08E00121284600F0E4
:102DC000BBF803E00021284600F0B6F80848007878
:102DD0002840002801D1012000E0002006463146AD
:102DE000284600F00DF805B0F0BD0000940000206A
:102DF000080000200A000020C92F0008702A0020C7
:102E000070B504460D46E007C00F00280ED0012D16
:102E100006D1002202210920C006FEF71AFA05E0B9
:102E2000012202210920C006FEF713FA02202040E9
:102E300000280ED0012D06D1012210210920C00644
:102E4000FEF707FA05E0002210210920C006FEF770
:102E500000FA0420204000280ED0012D06D10122C6
:102E600020210920C006FEF7F4F905E00022202108
:102E70000920C006FEF7EDF90820204000280ED0FA
:102E8000012D06D1012240210920C006FEF7E1F9FB
:102E900005E0002240210920C006FEF7DAF91020E3
:102EA000204000280ED0012D06D1012280210920CA
:102EB000C006FEF7CEF905E0002280210920C006F9
:102EC000FEF7C7F92020204000280CD0012D05D1A5
:102ED000012211461548FEF7BCF904E00022012149
:102EE0001248FEF7B6F98020204000280DD0012DB1
:102EF00005D1012251030E48FEF7ABF905E000228F
:102F0000012149030A48FEF7A4F9002D05D009481C
:102F1000007820430749087007E02046FF21484019
:102F20000449097808400349087070BD000400484E
:102F30000008004808000020F8B505460E4633009A
:102F400002F003FB09171606350E35353518350026
:102F50007D23DB001E2201212846FFF7E7FE27E044
:102F60007D23DB001E2232212846FFF7DFFE1FE013
:102F700000BF00BF0127EDB2114C15E028463840D4
:102F800000280ED0082E01D0267003E02078012101
:102F90004840207021783846FFF732FF28467840B5
:102FA00005467806070E0C34002DE7D100E000BF7F
:102FB00000BF31462846FFF723FF02480078F8BDDE
:102FC0009400002008000020F0B585B000270125FE
:102FD000FF2002904B4C20466030007800287DD1C5
:102FE00080E002982840002877D02078022108400D
:102FF00000286FD0FEF734F90646A168B1425CD8CC
:103000002078C007C00F002818D0A0786421081AC3
:10301000C0B203902078400840002070002128466C
:10302000FFF7EEFE20780421084000281CD16078CC
:10303000FF2819D06078401E607015E06078002885
:1030400009D1207804210840002804D120780221E9
:103050004840207008E0A0780390207801210843C0
:1030600020702846FFF7CCFE207802210840002877
:103070000CD0A188039A514308466421FDF734F827
:1030800080B2019001983018A0601AE000200190F1
:103090001D4800782840002801D0012000E00020D1
:1030A00001462846FFF748FF2846FF2148401649B9
:1030B000097808401449087003E02089801B80B219
:1030C0000190002F05D00198002803D00198B84244
:1030D00000DA019F02986840029000E010E0680664
:1030E000050E0C340298002800D07AE7002F07D094
:1030F00006480023012239460090054801F04EF9A8
:1031000005B0F0BD940000200A000020C92F00087F
:10311000702A002070B50246002014E00E4B1C8877
:103120001B885B1C0C4D2B800C4B1B5D1370521CC1
:103130002B461B8801242403A34202D300232C46E0
:103140002380431C98B2044B1B88034C6488A34221
:1031500001D08842E2DB70BD742900207419002080
:10316000084841880088884203DC06480088081A1D
:1031700005E00448008801221203101A401880B2AA
:10318000704700007429002000BFFEE710B501233E
:1031900000221146102001F092F810BD10B512481F
:1031A000124908601248486080211048816001215E
:1031B000C16000210161FF2141610021C161016203
:1031C000FEF754F8002802D00AA002F097F90F4A3F
:1031D0000021802000F002FA0522920205218020C1
:1031E00000F0FCF910BD0000005800407C290020D0
:1031F0000E090020493243325F53485432785F4908
:103200006E6974204572720D0A0000004F4800007C
:1032100001688969022211404908002902D0002171
:103220000268916201688969C907C90F012251408A
:103230005140002904D101688969114302689161F4
:103240007047000070B504460D4616462068806938
:1032500010210840000900283AD015E0681C002819
:1032600012D0002D04D0FDF7FBFF801BA8420BD924
:1032700020214120015500214220015500BF40205E
:10328000015500BF032070BD2068806920210840DF
:1032900040090028E2D010202168C8612020216860
:1032A000C8612046FFF7B4FF20684068094908401C
:1032B00021684860042060642021412001550021DC
:1032C0004220015500BF4020015500BF0120DAE730
:1032D0000020D8E700E800FEFFB581B0044615469F
:1032E0001E460A9F01204003F2B2C302009020460E
:1032F000029900F03BF8394620460B9A00F0F1F8AD
:10330000002807D0606C042802D1012005B0F0BD70
:103310000320FBE7012E03D1E8B22168886216E0A2
:10332000FF200002284000122168886239462046AA
:103330000B9A00F0D6F8002806D0606C042801D162
:103340000120E3E70320E1E7E8B2216888620B98F7
:103350003B46002280210090204600F01FF8002804
:1033600001D00320D2E70020D0E70000F0B50C46E2
:10337000002105686968084D2940A505AD0D1604B2
:10338000FF273F043E4035431D43059E35432943F7
:1033900005686960F0BD0000009800FCF8B50446BF
:1033A0000E4617461D4616E0681C002813D0002D57
:1033B00005D0FDF755FF0699401AA8420BD92021E8
:1033C0004120015500214220015500BF40200155F8
:1033D00000BF0320F8BD206880693040B04201D1B1
:1033E000012000E00020B842DED00020F2E700001B
:1033F00070B504460D4616463AE032462946204648
:10340000FFF720FF002801D0012070BD20688069EF
:10341000202108404009002816D020202168C861DA
:1034200020684068174908402168486000206064AF
:1034300020214120015500214220015500BF40209C
:10344000015500BF0120E0E7002D04D0FDF708FF83
:10345000801BA8420CD9606C202108436064412085
:10346000015500BF00214020015500BF0320CCE7DB
:10347000206880690421084080080028BDD0002011
:10348000C3E7000000E800FE70B504460D4616468E
:103490001EE0324629462046FFF7D4FE002801D020
:1034A000012070BD002D04D0FDF7DAFE801BA8427C
:1034B0000ED9606C20210843606441200155002131
:1034C0004220015500BF4020015500BF0320E8E71E
:1034D000206880692021084040090028D9D00020B8
:1034E000DFE770B504460D46164621E03246294610
:1034F0002046FFF7A7FE002801D0012070BD681C00
:10350000002815D0002D04D0FDF7AAFE801BA8428C
:103510000ED9606C202108436064412001550021D0
:103520004220015500BF4020015500BF0320E5E7C0
:10353000206880690221084040080028D6D0002079
:10354000DCE770B5054600240121284600F060F84C
:10355000284600F02DF804B20120C00320400028C6
:1035600002D0601EC04304B2A0B270BD70B5054663
:1035700000240421284600F04BF8284600F018F8F3
:1035800004460120C0032040002802D0601EC04332
:1035900084B2204670BD70B5044600250221204645
:1035A00000F036F8204600F003F80546284670BDC6
:1035B0007CB504460025681E022301AA214600901E
:1035C0000548FDF7BDFE69464879097909024018AA
:1035D00085B228467CBD00007C2900207FB50546C9
:1035E0000E4614462004010E684601734473002001
:1035F000C043022103AA01230092019102903246A6
:1036000029460248FEF71AF87FBD00007C290020F9
:1036100013B582B004460020C043012303AA8021D1
:1036200000900248FDF74CFF1FBD00007C290020E0
:103630007047000010B50F480078002819D00D48D9
:103640000078012804D0022806D003280CD107E016
:1036500009A001F053FF08E00BA001F04FFF04E0C8
:103660000DA001F04BFF00E000BF00BF00200149AA
:10367000087010BD680000204C6F6E672070726586
:103680007373310D0A0000004C6F6E672070726515
:103690007373320D0A0000004C6F6E672070726504
:1036A0007373330D0A00000010B51248007800282B
:1036B0001FD010480078C007C00F002804D00EA00B
:1036C00001F01CFFFEF778F90A4800784007C00FA8
:1036D000002802D00BA001F011FF064800788007F7
:1036E000C00F002802D00AA001F008FF0020014905
:1036F000087010BD650000205072657373310D0AAB
:10370000000000005072657373320D0A0000000063
:103710005072657373330D0A0000000010B51E4827
:103720000078002836D01D480078102188431B49B6
:103730000870084600782021884318490870164808
:103740000078C007C00F002807D015A001F0D6FEF2
:10375000FEF732F915A001F0D1FE0F4800784007BE
:10376000C00F002806D014A001F0C8FE0021802060
:10377000FFF7E2FB084800788007C00F002806D05A
:1037800000218020FFF7D8FB0EA001F0B7FE00203B
:103790000149087010BD0000660000206200002092
:1037A00052656C65617365310D0A000052656C6588
:1037B00061736531310D0A0052656C656173653264
:1037C0000D0A000052656C65617365330D0A0000D7
:1037D00010B520215548FDF733FD002801D0012008
:1037E00000E00020C407E40F514800784008400082
:1037F00020434F49087040214C48FDF721FD002827
:1038000001D0012000E00020440002210C40484883
:103810000078884320434649087080214348FDF7DB
:103820000FFD002801D0012000E0002084000421C9
:103830000C403F480078884320433D4908703D488C
:1038400000783D4908703A480078097848403A497C
:10385000087000203949087059E037480178374826
:103860000278012090400140002929D03348017896
:10387000012088402E4909788843002820D02C4810
:1038800001782E480278012090400143C8B22C49AB
:10389000087008460078FF2834D12A4800780F289D
:1038A00030D1264800782749087000202649087042
:1038B000264800781021884310302449087021E000
:1038C0001D4801781D4802780120904001400029E0
:1038D00018D01748007819490A780121914008400A
:1038E00000280FD01748007814490978884209D178
:1038F000002017490870154800782021884320309F
:10390000124908700D480078401C0C4908700B489B
:1039100000780328A1DB0648007806490870FFF705
:10392000C3FEFFF787FEFFF7F9FE10BD0004004855
:103930006300002067000020640000206900002070
:1039400073000020740000206C0000206200002042
:103950006D00002084480078C006C00F002841D0C8
:1039600082480178012088408149097888430028ED
:103970002CD000207F4908707F480078401C7E4989
:1039800008700846007802282CD900200870764874
:10399000007810218843744908700846007808218F
:1039A00088430830704908700020744908804880B6
:1039B0008880734800786D490A7801219140084356
:1039C0006F49087001206F4908700BE000206A49B8
:1039D00008706548007810218843634908700F20FB
:1039E00062490870604800788006C00F002835D012
:1039F0005F4800785D490A7801219140084000281D
:103A000029D000205C4908705A480078401C594968
:103A1000087008460078042820D900200870524811
:103A20000078202188435049087008460078082112
:103A300088434D490870544800784C490A78012160
:103A400091400843504908700F20484908700320EE
:103A50004C49087002E0002046490870424800784E
:103A60000007C00F00287DD041480078C007C00F74
:103A700000281FD13E4800788007C00F002819D0C9
:103A80003B4800784007C00F002813D000203B4976
:103A90004880888008460088401C088008460088C6
:103AA0003A4988425ED900203449088001203849CB
:103AB000087057E02E480078C007C00F00281FD0BC
:103AC0002B4800788007C00F002819D128480078BB
:103AD0004007C00F002813D00020284908808880A4
:103AE00008464088401C488008464088274988424C
:103AF00038D900202149488002202549087031E04A
:103B00001B480078C007C00F00281ED01848007856
:103B10008007C00F002818D0154800784007C00F54
:103B2000002812D115490880488008468088401C2A
:103B30008880084680881549884213D900200F499B
:103B400088800120124908700CE00748007808219D
:103B5000884305490870002008498880088048800B
:103B60000B490870704700006200002074000020BC
:103B7000630000206D0000206C0000207600002013
:103B8000650000207200002066000020B70B0000D6
:103B90006800002010B51248408B124988421CD1A1
:103BA00000210F4841834038416D0FA001F0A6FC71
:103BB0000B494039486DFCF7E4FA84B208484038B4
:103BC000084B2246416DFFF739F805494039486DE9
:103BD00001210903FCF7B6FA10BD00BFFCE70000A5
:103BE00078020020FFFF0000496E7075743A2025AE
:103BF000730D0A0070477047F0B591B0002400279C
:103C00000020109000BF97494871087108609648DD
:103C10000078142824DA944909788900934A88188E
:103C2000FDF760F8924800230122C82100908D48DA
:103C300000F0B4FB8C49097889008C4A5058FCF795
:103C4000DBFC02460B460F910E908748017889A055
:103C500001F054FC84480078401C83490870FEE061
:103C600000208149087000241CE0601CC7B215E0E8
:103C7000BA007E4B9958A2009858FCF701FD0BD270
:103C8000A0007A4908581090B8000858A100774A57
:103C90005050B90010985050781CC7B2142FE7DB71
:103CA000601CC4B2132CE0DB00252E4600240EE07D
:103CB000A1006E4A5058FCF79FFC2A4633460F91EC
:103CC0000E90FCF7DDFA05460E46601CC4B2142CBB
:103CD000EEDB6649C86CFCF78FFC0D910C906349D4
:103CE000886CFCF789FC0991089060494868FCF7EA
:103CF00083FC059104905D490868FCF77DFC2A4629
:103D0000334601910090FCF765FB03910290059BFF
:103D1000049AFCF759FB07910690099B089AFCF757
:103D200053FB0B910A900D9B0C9AFCF74DFB002264
:103D3000574B0F910E90FCF7BDFB05460E465548BC
:103D40000078092836D10022534B28463146FCF72B
:103D500067FC1DD82A46334650A001F0CFFB022055
:103D60004C4908700121FFF7E7F801210420FFF713
:103D7000E3F801210820FFF7DFF87D23DB00322282
:103D8000FF211020FEF7D2FF4AA001F0B7FB10E0A0
:103D900001210220FFF7D0F801210420FFF7CCF821
:103DA00000210820FFF7C8F84AA001F0A7FBFCF7A4
:103DB000ADFE54E037480078062850D10720354939
:103DC000087000224A4B28463146FCF729FC22D8CD
:103DD0002A46334631A001F091FB02202D4908709C
:103DE0000121FFF7A9F801210420FFF7A5F801211F
:103DF0000820FFF7A1F801211020FFF79DF801210D
:103E00002020FFF799F83BA001F078FB01218020EA
:103E1000FFF792F818E001210220FFF78DF8012149
:103E20000420FFF789F801210820FFF785F8012118
:103E30001020FFF781F800212020FFF77DF835A042
:103E400001F05CFBFCF762FE00BF39480023012251
:103E50007D21C90000900348183000F09FFA11B08E
:103E6000F0BD0000C829002081000020B42A0020F5
:103E7000F93B000820205368756E745F766F6C7490
:103E80006167655B25645D203A2566200A000000B5
:103E9000000030408000002000003E40202043759C
:103EA0007272656E74203A25302E31662075410A93
:103EB000000000005354455020333A20576F726B76
:103EC0002043757272656E74204E6F726D616C0A5C
:103ED000000000005354455020333A20576F726B56
:103EE0002043757272656E74204C617267650A00BA
:103EF000000049405354455020353A20576F726BAB
:103F00002043757272656E74204E6F726D616C0A1B
:103F1000000000005354455020353A20576F726B13
:103F20002043757272656E74204C617267650A0079
:103F3000353F000810B50021054841770121017780
:103F40007D20C00002498861FCF74AFE10BD0000D8
:103F5000C8290020704710B5FDF7CCFC10BD00B596
:103F600091B001200190029002200990C1030A91B2
:103F7000C1040B9100210C9101A8FDF741FF00281D
:103F800001D000BFFEE707200D9002200E90002018
:103F90000F90109001210DA8FDF7D2FD002801D04F
:103FA00000BFFEE711B000BD1948006801210843B9
:103FB0001749086008464068164908401449486097
:103FC000084600681449084011490860084600681E
:103FD0000121890488430E490860084640683F2152
:103FE000090488430A4948600846C06A000900017C
:103FF000C8620846006BFF211431884304490863F6
:104000000846406B400840004863002088607047C5
:10401000001002400CB8FF08FFFFF6FE10B5024882
:10402000FEF752FA10BD0000080100200B4800689E
:104030000069C007C00F01214840484000280BD04C
:1040400006480068C068084048404840002803D03F
:10405000C81E0249096808617047000088010020F5
:1040600010B5214800680069C007C00F0121484011
:104070004840002837D01C480068C06808404840C5
:10408000484000282FD0C81E17490968086100F071
:1040900039F9FFF75FFC15480088002805DD134853
:1040A0000088401E114908801DE000200F4908804B
:1040B000FFF756F80E49088008460088002812D0FD
:1040C00001210C4801710A4801880B4841830246CE
:1040D000118B403A506DFCF735F8074A518B403A46
:1040E000506DFFF717F810BD4801002018000020A0
:1040F0001A000020742900200802002070B586B044
:104100000025002601A902A8FDF7E4FD059D002D6C
:1041100003D1FDF701FE044602E0FDF7FDFD44007A
:104120000D492046FBF7E0FF461E0C480C4908608D
:104130000C490B48C16046600021016181608161CA
:10414000FEF724F9002804D10548FEF779F906B0F6
:1041500070BD0120FBE7000040420F00001000404E
:1041600048010020E703000010B500220268204B40
:10417000984202D01F4B984205D170241346A343A6
:104180001A464B681A431A4B98420ED0194B984264
:104190000BD0194B984208D0184B984205D0184BB9
:1041A000984202D0174B984206D1032424021346AA
:1041B000A3431A46CB681A4380241346A3434C6991
:1041C00023431A4602608B68C3620B688362084B04
:1041D000984208D0094B984205D0094B984202D02A
:1041E000084B984201D10B6903630123436110BD61
:1041F000002C01400004004000200040004001402D
:10420000004401400048014010B500BF01220421D4
:104210000920C006FDF71DF800BF00BF01220821DC
:104220000920C006FDF715F800BF0120FCF779FE54
:1042300000BF002208210920C006FDF70AF800BFD0
:104240000120FCF76EFE00BF002204210920C006F9
:10425000FCF7FFFF00BF10BD10B500BF0022082112
:104260000920C006FCF7F5FF00BF0120FCF759FE4E
:1042700000BF012204210920C006FCF7EAFF00BFAD
:104280000120FCF74EFE00BF012208210920C006D4
:10429000FCF7DFFF00BF0120FCF743FE00BF002258
:1042A00004210920C006FCF7D4FF00BF00BF002294
:1042B00008210920C006FCF7CCFF00BF10BDF8B5EF
:1042C00004460D4616461F46FFF79EFF482001F0A4
:1042D0002FFE2146294331433943084601F028FE89
:1042E000FFF7BAFFF8BD70B505460C46FFF78CFF27
:1042F000284601F01DFE204601F01AFEFFF7ACFF34
:1043000070BD0000002000BF24E00C214143134A8F
:104310008918097900291BD00C21414351580029E3
:1043200008D00C2141435158491E0C2242430B4BEB
:1043300099500DE000220C214143084BC9180A7125
:104340000C2141435A5001220C214143C9184A71A2
:10435000411CC8B20F28D8DB70470000C8290020D4
:1043600010B5002414E00C2060430B49401840793C
:1043700000280BD00C20604340188068002805D02E
:104380000C216143044A891888688047601CC4B2C4
:104390000F2CE8DB10BD0000C829002010B5029CDE
:1043A000016002714371846010BD818CC907C90F1F
:1043B000002908D001684968012252049143826AA9
:1043C0001143026851600222416A1140002907D05E
:1043D00001684968D2039143C26A1143026851607F
:1043E0000422416A1140002907D00168496812047B
:1043F0009143026B1143026851600822416A1140E7
:10440000002907D00168496812039143426B1143A8
:10441000026851601022416A1140002907D00168EA
:10442000896812029143826B1143026891602022D5
:10443000416A1140002907D001688968120291433E
:10444000C26B1143026891604022416A1140002909
:1044500015D00168496892039143026C11430268C8
:10446000516001221205016C914208D1016849682E
:10447000032252059143426C11430268516080222D
:10448000416A1140002907D001684968120391432D
:10449000826C114302685160704701460020C86673
:1044A0002022692042546A20425400BF0022682022
:1044B000425400BF0020704770B505466C6A692001
:1044C000005D21280BD120688068802108400028E9
:1044D00005D0002152200153204600F056F86A20F2
:1044E000005D22280BD12068806840210840002808
:1044F00005D000215A200153204600F035F8E06E27
:1045000010210843E0662046FEF7DEF970BD70B565
:1045100005466C6A2868006820210840002818D1E8
:1045200000215A20015320680068FF21013188438F
:104530002168086020688068400840002168886021
:1045400020688068402188432168886020216A2093
:1045500001552046FEF770FB70BD70B50446656AD4
:104560002846FEF76AFB70BD01680968FF22213208
:10457000914302681160016889684908490002682E
:10458000916020226A210A54704701680968C0229C
:10459000914302681160202269210A54704700008B
:1045A000FEB5044600251026002700200290019049
:1045B0002169A068084361690843E1690843054629
:1045C0002068006874490840284321680860206812
:1045D0004068032109038843E16808432168486073
:1045E000216AA06908430546206880680B210902FA
:1045F000884328432168886000BF68492068884252
:1046000017D16748006B8007800F002806D001286B
:1046100008D0022808D0032808D101E0002607E0CE
:10462000022605E0042603E0082601E0102600BF6C
:104630001EE05C492068884201D1002618E05A49F2
:104640002068884201D1002612E05849206888423B
:1046500001D100260CE056492068884201D100268D
:1046600006E054492068884201D1002600E0102667
:1046700000BF0121C903E069884249D1042E20D03E
:1046800004DC002E07D0022E32D111E0082E25D0F6
:10469000102E2DD12DE0FDF73FFB40006168490849
:1046A000401800906168FBF71FFD80B2029023E084
:1046B00061684A08404BD018FBF716FD80B20290A3
:1046C0001AE0FDF73BFB4000616849084018009084
:1046D0006168FBF709FD80B202900DE061684A084D
:1046E00001231B04D018FBF7FFFC80B2029003E00B
:1046F00000BF0120019000BF00BF30490298084070
:10470000074602980007400F07432068C76040E053
:10471000042E21D004DC002E07D0022E34D111E06B
:10472000082E26D0102E2FD12FE0FDF7F5FA616864
:104730004908401800906168FBF7D6FC80B22168F8
:10474000C86025E061684A081D4BD018FBF7CCFC17
:1047500080B22168C8601BE0FDF7F0FA6168490883
:10476000401800906168FBF7BFFC80B22168C86008
:104770000EE061684A080123DB03D018FBF7B4FCA4
:1047800080B22168C86003E000BF0120019000BF33
:1047900000BF0198FEBD0000F369FFEF0038014043
:1047A000001002400044004000480040004C00401F
:1047B00000500040001401400024F400F0FF00000D
:1047C00000127A00FFB581B004460D4617460A9ED6
:1047D00024E0701C002821D0002E05D0FCF740FDFD
:1047E0000499401AB04219D920680068FF21A1310C
:1047F000884321680860206880684008400021687C
:1048000088602021692001556A20015500BF0021E0
:104810006820015500BF032005B0F0BD2068C069C5
:104820002840A84201D1012000E00020B842D0D0A9
:104830000020F1E710B50248FDF75AFF10BD000057
:10484000C801002010B53A483A4948653A48C8645A
:1048500001210903374840300183C91001823748DC
:1048600034490860E120000248600021314881603D
:10487000C160016181610C21416100202D494862C4
:104880000846FDF7FBFF2B48FEF71FF8002802D073
:104890002BA000F033FE00BF2648806801210903E9
:1048A00088420DD123480069002804D12A492148B3
:1048B0004030818329E0FF211E484030818324E07D
:1048C0001C48806800280DD11A480069002804D1CE
:1048D000FF2118484030818317E07F211548403080
:1048E000818312E0134880680121090788420CD1B6
:1048F00010480069002804D17F210E484030818390
:1049000003E03F210B484030818300BF0948006825
:1049100080680121084307490968886005480068E4
:104920000068FF212131084302490968086010BD71
:1049300074030020C80100207413002000380140D7
:104940004F50532055415254315F496E6974206570
:1049500072720D0A00000000FF01000010B502484D
:10496000FDF7C6FE10BD00003802002010B5154846
:10497000154948651548C86401214902124840306C
:1049800001830182124810490860E120400248601A
:1049900000210D488160C160016181610C2141618C
:1049A0000121C903C1610020074948620846FDF79B
:1049B00065FF0548FDF789FF002802D005A000F03B
:1049C0009DFD10BD741500203802002074170020D2
:1049D00000500040574946492055415254355F49DF
:1049E0006E6974206572720D0A00000038B50024EB
:1049F000FC48007901287DD10021FA480171FA486C
:104A00000078002836D1F94800230122F8490090A7
:104A1000F848FFF7C3FCF849486DF8A1FBF79DFB88
:104A200000281DD0F449486DF6A1FBF796FB00283D
:104A300016D00120EC49087001210220FEF77CFA13
:104A40007D23DB003222FF210420FEF76FF90020D6
:104A5000F3490870F3490870F3A000F04FFD09E036
:104A60000020EF490870FAA000F048FD3F216820BF
:104A7000FFF739FCDC48007801287DD1FE4800783A
:104A800000282ED10120FC490870DB49486DFBA1AC
:104A9000FBF763FB002805D0E1480078401CE049A3
:104AA000087008E03F21DF4802780078401CDD4BA9
:104AB0001870F7488154D049486DF6A1FBF74DFBBB
:104AC000002805D0D6480078401CD549087008E079
:104AD0000621D44802780078401CD24B1870EC486C
:104AE0008154C549486DEEA1FBF737FB002843D040
:104AF000C14900E0FEE3486DEEA1FBF72EFB002864
:104B0000F5D0BD49486DE6A1FBF727FB0446EEA1B1
:104B10002046FBF722FB002805D0C1480078401C46
:104B2000BF49087008E05B21BE4802780078401C4D
:104B3000BC4B1870D6488154E7A12046FBF70DFB0B
:104B4000002805D0B6480078401CB549087008E038
:104B50005B21B44802780078401CB24B1870CC48F6
:104B60008154E2A12046FBF7F8FA002807D0AC48B0
:104B70000078401CAA4900E0A9E2087008E05B2127
:104B8000A84802780078401CA64B1870C048815491
:104B9000DAA12046FBF7E1FA002805D0A04800780A
:104BA000401C9F49087008E05B219E48027800780D
:104BB000401C9C4B1870B6488154D5A12046FBF789
:104BC000CCFA002805D096480078401C944908701B
:104BD00008E05B21934802780078401C914B1870E4
:104BE000AB488154CFA12046FBF7B7FA002805D087
:104BF0008B480078401C8A49087008E05B2189488E
:104C000002780078401C874B1870A1488154C9A1D4
:104C10002046FBF7A2FA002805D081480078401C06
:104C20007F49087008E05B217E4802780078401CCC
:104C30007C4B187096488154C2A12046FBF78DFA30
:104C4000002805D076480078401C7549087008E0B7
:104C50005B22744801780078401C724B18708C48B5
:104C60004254BDA12046FBF778FA002805D06C48D5
:104C70000078401C6A49087008E05B2169480278A6
:104C80000078401C674B187081488154B6A12046BB
:104C9000FBF763FA002805D061480078401C6049A2
:104CA000087008E05B215F4802780078401C5D4B8B
:104CB000187077488154B0A12046FBF74EFA0028BF
:104CC00005D057480078401C5549087008E05B2122
:104CD000544802780078401C524B18706C4881543C
:104CE000AAA12046FBF739FA002805D1ABA120463E
:104CF000FBF733FA002812D049480078401C484995
:104D00000870AAA12046FBF728FA04460E340A22AE
:104D100000212046FBF73CFAA849087008E05B2216
:104D2000404801780078401C3E4B18705848425467
:104D300060A12046FBF711FA0446A1A12046FBF72B
:104D40000CFA002820D09EA12046FBF706FAC41CCE
:104D500020782D2808D10A2200212046FBF718FAD6
:104D600040429849088006E00A2200212046FBF7CD
:104D70000FFA9449088093480088002804DD2848E9
:104D80000078401C264908708FA12046FBF7E5F902
:104D9000002818D08CA12046FBF7DFF9C41C0A229A
:104DA00000212046FBF7F4F9864908800846008870
:104DB000002808DD08460088642804DA18480078CE
:104DC000401C1749087081A12046FBF7C6F900284E
:104DD00006D07EA12046FBF7C0F9441D0A22F9E067
:104DE0001FE1000074290020800000200D0B000846
:104DF00010270000EC290020C8010020426F6F74CA
:104E00000000000050726F6772616D205665726914
:104E10006669656420537563636573730000000001
:104E2000840000207E0000205354455020313A2059
:104E3000557365722050726F6772616D205665728E
:104E4000696669656420537563636573730A00005E
:104E50005354455020313A20557365722050726F7B
:104E60006772616D20566572696669656420466186
:104E7000696C65640A0000007F000020454E5332D3
:104E80003130207061727449443A20303231300040
:104E90007C2A0020525443204C5345204F4B0000A5
:104EA000436F6E66696720506172616D65746572EB
:104EB0007300000050657269706820506172616D06
:104EC0006574657273000000506C6174666F726D7A
:104ED000547970653A20300055706C6F616450658C
:104EE00072696F643A203336303000005265636F68
:104EF0007264506572696F643A20350054656D7054
:104F00004D61783A202020202020353030000000EC
:104F100054656D704D696E3A2020202020202D337D
:104F20003530000054656D7044656C617954696D6D
:104F3000653A3000416D656E6454656D703A2020AD
:104F40002020300048756D4D61783A2020202020C7
:104F5000202039390000000048756D4D696E3A20F7
:104F6000202020202020300048756D44656C617938
:104F700054696D653A203000566F6C746167654DF9
:104F8000696E3A202020323000000000576F726BAB
:104F90005374617475733A2020203000576F726B20
:104FA0005374617475733A2020203100576F726B0F
:104FB0005374617475733A2020200000880000202B
:104FC000543A200086000020483A20004256203AF9
:104FD0002000000000212046FBF7DAF8E1490880B4
:104FE000E148FBF75FFEE0490868FBF7F1FA80B2A1
:104FF000DC4909880D1A002D01DB284600E06842D3
:10500000142805DAD9480078401CD849087008E00F
:105010004F22D74801780078401CD54B1870D548EE
:105020004254D5A12046FBF798F8002804D0CF4879
:105030000078401CCD490870D1A12046FBF78DF8BF
:10504000002804D0C9480078401CC8490870CEA187
:105050002046FBF782F8002805D0C4480078401CA1
:10506000C249087008E06621C14802780078401CF7
:10507000BF4B1870BF488154BC48007814284FD1EA
:105080000020BA490870C64800231A461946009005
:10509000C448FFF783F9C4480078002818D10920D4
:1050A000C249087001210220FDF746FF01210420BA
:1050B000FDF742FF7D23DB003222FF210820FDF7B0
:1050C00035FE0020A9490870B94800F017FA40E001
:1050D000B548007801283CD10220B449087001216C
:1050E000FDF72AFF01210420FDF726FF01210820FA
:1050F000FDF722FF7D23DB003222FF211020FDF788
:1051000015FE002099490870AA4800F0F7F9A44854
:1051100000230122A8490090A248FFF73FF918E0B8
:105120000A20A24908700020A449087091480A4644
:105130001278815C6820FFF7D6F8A148002301228D
:105140007D21C900009097480C30FFF727F9FBF745
:10515000DDFC96480078092813D19A49486D9AA138
:10516000FAF7FBFF00280CD000209A4908709A48F3
:10517000002301227D21090100908A482438FFF78D
:105180000DF98A480078022827D18E49486D93A1ED
:10519000FAF7E3FF002820D093A000F0AFF9032036
:1051A0008249087001210220FDF7C6FE012104207A
:1051B000FDF7C2FE01210820FDF7BEFEFF23F533F7
:1051C0001422FF211020FDF7B1FD754800230122B4
:1051D0008A4900907348FFF7E1F874480078032883
:1051E00027D17849486D86A1FAF7B7FF002820D06B
:1051F00004206E49087086A000F080F90121022089
:10520000FDF79AFE01210420FDF796FE01210820FA
:10521000FDF792FE7D23DB001422FF211020FDF715
:1052200085FD5F48002301227E4900905D48FFF71D
:10523000B5F85E48007804283CD16249486D7AA1EF
:10524000FAF78BFF002824D006205849087079A06F
:1052500000F054F901210220FDF76EFE0121042027
:10526000FDF76AFE01210820FDF766FE01211020EE
:10527000FDF762FE7D23DB003222FF212020FDF7B7
:1052800055FD4748002301225C4900904548FFF73F
:1052900085F84C49486D6BA1FAF75FFF002809D0EB
:1052A000FBF734FC00211020FDF746FE07216820A3
:1052B000FFF719F83D48007806284BD14149486D61
:1052C00041A1FAF74AFF002832D0354800230122D5
:1052D0004A4900903348FFF761F8FF23F533142261
:1052E000FF212020FDF722FD5BA000F007F95E48BA
:1052F000007800E035E0401C5B4908700846007803
:10530000032827DD264800231A4619460090254821
:10531000FFF744F800202F4908702F48002301228E
:105320007D21C90000901F482438FFF737F811E0AD
:105330002449486D4DA1FAF710FF00280AD01848FB
:10534000002301222D4900901648FFF727F800207E
:10535000454908701B4A4032118B403A506DFAF7AC
:10536000F1FE38BD86000020A42A00208400002021
:105370007E0000207C2A00205047203A2030000088
:105380004348473A2030000052726354696D653AD1
:10539000323030302D312D312C303A303A0000008F
:1053A0000D0B0008EC290020880000208000002060
:1053B000B8600008FC600008102700007C00002096
:1053C0007D0B0008C801002053656E736F72205377
:1053D000746F700081000020F93B00084368656528
:1053E000727A696E67000000202043686565727AF2
:1053F000696E6720204F4B0D0A000000409C0000A2
:1054000041542B4D4C57455654494E443D330000B2
:10541000202041542B4D4C57455654494E443D3362
:105420000A000000204E0000726563656976652001
:1054300041636B0020205265636569766520416396
:105440006B0A000074696D656F75742C5265747217
:105450007953656E64000000202053656E736F728F
:105460002053746F700A00008200002041542B4DBD
:105470004C57554C444154414558000010B5044622
:105480002068C06910210840000900281AD01020A7
:10549000216808620C492068884203D00B492068C3
:1054A00088420FD11020216808622046FDF7B2F92A
:1054B0000021C9435A2001535820025B2046616DE8
:1054C000FDF754FB10BD00000038014000500040C3
:1054D000FF2006490870002005490870FF20054993
:1054E00008700F2004490870704700006300002016
:1054F0006400002067000020740000200FB410B585
:1055000003A9044B044A029800F038F910BC08BC07
:1055100004B01847B55E00088C0000202021020C62
:1055200001D010211046020A01D0104608390209A4
:1055300001D01046091F820801D01046891E42087A
:1055400001D0881E7047081A704730B47446641E34
:105550002578641CAB4204D3635D5B00E31830BC68
:1055600018471D46F8E7000010B5002819DB1A4A55
:1055700003231B02D21883089B00D2588307DC0E3A
:10558000FF23A3409A438B071B0E8407E40EA3401E
:105590001A43114B032424021B198408A4001A5136
:1055A00018E00E4A03071B0F083B9B089B00D258CC
:1055B0008307DC0EFF23A3409A438B071B0E84074F
:1055C000E40EA3401A43054B0407240F083CA4082B
:1055D000A4001A5110BD000000E100E01CED00E045
:1055E000004870479000002002E008C8121F08C160
:1055F000002AFAD170477047002001E001C1121F54
:10560000002AFBD170470000F0B51FB486B009989E
:10561000089A030D0021024314D05148514A18182A
:10562000504305141198012810981AD0281A401CCC
:1056300000264D4F4D49009601910490002812DA42
:10564000444211E01198012449A3012801D1109886
:10565000C1430698119A84600360C26041600BB038
:10566000F0BD4042E4E70446210500203F4A001C0B
:1056700051410391029012E0E00707D032463B46C9
:1056800001990098FAF7AEFE0191009032463B4630
:1056900010461946FAF7A6FE06460F466410002C7F
:1056A000EAD10498039B0028029A0999089806DA1F
:1056B000FAF798FE019B009AFAF794FE05E0FAF7D4
:1056C000F9FE019B009AFAF7F5FE04460E46002209
:1056D000284BFBF74BF903D80020C043014607E0F5
:1056E0000022254B20463146FAF7CAFDFBF71EF98A
:1056F000102409E0002C0ADB0A220023FAF7CAFF73
:10570000079B30321A55641E02460A43F2D1112219
:10571000641C079B121B1C19119B012B03D0012336
:1057200008430ED10AE0084304D011201090002055
:10573000119077E71098151A6D1E0BE010988242B1
:1057400002DD00236D1C03E0824201DA00236D1E9E
:10575000002BEED0069811998260C16030C07EE7C0
:1057600001FCFFFF104D0000000014400000F03F5E
:10577000300000000000F0430000E03FFFB597B0AC
:105780000646002518E2252877D100242746FD4942
:10579000049400E00443761C32780120203A9040C3
:1057A0000842F7D130782A280ED0022230780146FC
:1057B0003039092916D804990A2359433039401839
:1057C0001443761C0490F1E7189802C804911890CD
:1057D000002904DA012040030443484204900220D7
:1057E0000443761C30782E2814D1042004437078AA
:1057F000761C2A2809D11898761C80C8189009E0D0
:105800000A214F43303FC719761C307801463039A2
:105810000929F5D930786C2810D006DC4C281AD02C
:1058200068280ED06A2817D104E0742813D07A288B
:1058300012D110E00120400504430CE001210905CC
:1058400001E0032109050C437178814203D1012055
:1058500000052418761C761C3078119066280BD031
:1058600013DC58287DD009DC00287BD04528F6D0F1
:105870004628F4D047281AD1A5E118E0632835D08E
:10588000642870D0652812D19DE170286CD008DCA6
:105890006728F1D069287BD06E280DD06F2806D1FB
:1058A000BAE073282ED0752871D0782859D01A9A6A
:1058B000199990476D1C7EE16002400F022809D0C3
:1058C00003280DD00428189801680DD00D60001D24
:1058D000189070E11898EA1701680D604A60F6E7C1
:1058E000189801680D80F2E70D70F0E718986A4685
:1058F00001781172001D18900020507202A80090CB
:10590000012005E0189802C8189000200091C043BB
:1059100061070DD5002101E00199491C0191B942AF
:1059200012DA8142F8DB009A515C0029F4D10BE0D5
:10593000002101E00199491C01918142FADB019AA1
:105940000099895C0029F5D1019904981A9B471A9E
:1059500021463846199A00F097FA019940194518DE
:105960000BE04FE02CE113E04EE000980099007846
:10597000491C00911A9A199990470198401E01906C
:10598000401CF2D1214638461A9B199A10E137E0A3
:105990000A200021009001916002410F022907D0E6
:1059A000189A01CA1892C2179446032908D00AE02F
:1059B0001898C01DC108C90005C91891944607E090
:1059C00000B2C2179446042902D140B2C1178C46D6
:1059D00000226146944506DA0A4600214042914180
:1059E0008C462D2102E0210504D52B216A46117336
:1059F000012103E0E10701D02021F7E7029155E002
:105A00000A200AE0102008E0102000900021042065
:105A100004430191082703E0082000210191009030
:105A20006002410F022907D0189A01CA1892002279
:105A30009446032908D008E01898C01DC108C90081
:105A400005C91891944603E080B2042900D1C0B280
:105A500000210291210729D51199702906D0009AB9
:105A60001021019B4A401A4305D00EE040216A46AE
:105A70001173012108E06146014306D030216A46D6
:105A800011731199517302210291009A0821019B0F
:105A90004A401A430AD16146014301D1610705D545
:105AA00030216A46117301217F1E029111995829F4
:105AB00004D035A10E910DA90D910DE037A1F9E7A4
:105AC0006146019B009AFAF7E5FD0E9B8C469B5CB4
:105AD0000D9A521E0D92137061460143F0D10D983C
